:020000040800F2
:10000000D82000209D010008431300083F1300087A
:1000100041130008990700081116000800000000AD
:10002000000000000000000000000000471300086E
:100030009B07000800000000451300084913000852
:10004000B7010008B7010008B7010008B7010008B0
:10005000B7010008B7010008B7010008B7010008A0
:10006000B7010008B7010008B7010008B701000890
:10007000B7010008B7010008B7010008B701000880
:10008000B7010008B7010008B7010008B701000870
:10009000B7010008B7010008B7010008B701000860
:1000A000B7010008B7010008B7010008B701000850
:1000B000B7010008B7010008B7010008B701000840
:1000C000B7010008B7010008B7010008B701000830
:1000D000B7010008B7010008B7010008B701000820
:1000E000B7010008B7010008B7010008B701000810
:1000F000B7010008B7010008B7010008B701000800
:10010000B7010008B7010008B7010008B7010008EF
:10011000B7010008B7010008B7010008B7010008DF
:10012000B7010008B7010008B7010008B7010008CF
:10013000B7010008B7010008B7010008B7010008BF
:10014000B7010008B7010008B7010008B7010008AF
:10015000B7010008B7010008B7010008B70100089F
:10016000B7010008B7010008B7010008B70100088F
:10017000B7010008B7010008B7010008000000003F
:10018000B7010008B7010008DFF80CD000F0E0FA72
:100190000048004789280008D820002006488047EA
:1001A00006480047FEE7FEE7FEE7FEE7FEE7FEE75C
:1001B000FEE7FEE7FEE7FEE7ED1300088901000811
:1001C0002DE9F05F0546002092469B46884606468C
:1001D000814640241BE0284641464746224600F01F
:1001E00016F953465A46C01A914110D31146184683
:1001F000224600F0FDF82D1A67EB01084F46224613
:100200000120002100F0F4F817EB00094E41201EF8
:10021000A4F10104DFDC484631462A464346BDE8E6
:10022000F09F2DE9F04D81EA030404F0004B21F02A
:10023000004514464FF0000A23F0004150EA050241
:1002400020D054EA01021DD0C5F30A570246C5F377
:100250001303C1F31300C1F30A5640F4801543F4AD
:100260008013A7EB0608101BD64608F2FD3873EB87
:10027000050002D308F1010801E092185B41B8F1D2
:10028000000F03DA00200146BDE8F08D00204FF496
:100290008011064684460EE0171B73EB050705D355
:1002A000121B63EB050306434CEA010C49084FEAB5
:1002B000300092185B4150EA0107EDD152EA030089
:1002C00012D082EA040083EA0501084303D1002228
:1002D0004FF0004308E0101BAB4102D20122002383
:1002E00002E06FF0010253101AEB06004CEB0851CC
:1002F00010EB0A0041EB0B01BDE8F04D00F097B8A0
:100300000EB540F2334102910021CDE900110A46B9
:100310000B4600F099F803B000BDC1F30A5210B5C6
:10032000C1F3130140F2FF3341F480119A4201DA24
:10033000002010BD40F233439A42A2F2334203DC64
:10034000524200F064F810BD904010BD00F0004231
:1003500030F000400AD0C10D01F56071C0F3160005
:1003600042EA0151C208400711437047002001468C
:100370007047000030B5002904DB4FF000444042D4
:1003800064EB0101002B04DB4FF00044524264EBAC
:1003900003038B4208BF824230BD000030B5002904
:1003A00004DB4FF00044404264EB0101002B04DB0E
:1003B0004FF00044524264EB0303994208BF90425D
:1003C00030BD000030B50B4601460020202201243C
:1003D00009E021FA02F59D4205D303FA02F5491B13
:1003E00004FA02F52844151EA2F10102F1DC30BD29
:1003F000202A04DB203A00FA02F1002070479140E5
:10040000C2F1200320FA03F3194390407047202AD9
:1004100004DB203A21FA02F00021704721FA02F3AE
:10042000D040C2F12002914008431946704710B5F0
:10043000002B08DA401C41F1000192185B411A437D
:1004400001D120F0010010BD2DE9F04D92469B46F0
:1004500011B1B1FA81F202E0B0FA80F22032904696
:10046000FFF7C6FF04460F4640EA0A0041EA0B01C7
:1004700053465A46084303D120463946BDE8F08D1D
:10048000114653EA010015D0C8F140025046FFF76B
:10049000BEFF05460E46504659464246FFF7A8FFA6
:1004A000084301D0012000E00020054346EAE07641
:1004B0002C4337430A984FEA4453A0EB08004FEA15
:1004C000D4240A304FF0000244EA47544FEAD725BB
:1004D00002D500200146D1E7010510196941DDE987
:1004E000084500196941BDE8F04DA0E72DE9FE4F30
:1004F000804681EA0300C00F0C46009021F00041C5
:1005000023F00045B8EB0200A94105D24046214640
:1005100090461C460B46024623F00040104304D18F
:100520004046214603B0BDE8F08F270DC7F30A000F
:10053000C3F30A510290401A0190402866DAC3F3CF
:10054000130040F4801B0098924620B10023D2EBA8
:10055000030A63EB0B0B01985946C0F14002504669
:10056000FFF746FF06460D4650465946019A00F0F1
:1005700001F910EB08006141002487EA115284EA76
:10058000E7731A433BD0009A3AB3019A012A4FEA23
:10059000075210DC001B61EB02014FF0004202EA3F
:1005A0000752CDE90042001C41F5801132462B462E
:1005B000FFF74AFFB6E7001B61EB0201001C41F5A3
:1005C000801300185B412018A2F5001747EB0301C8
:1005D00040EAD570B6196D4111E06D084FEA360654
:1005E00045EAC0754FEA0752001B61EB0201001C8F
:1005F00041F5801149084FEA300000195141324657
:100600002B4603B0BDE8F04FFFF711BF0098012261
:1006100040000023D0EB020263EBE0730098214618
:100620004FEAE074B8EB000061EB0401E9E783F006
:1006300000435BE781F0004158E72DE9FE4F81EA76
:10064000030404F0004421F0004100944FF0000B3B
:1006500023F0004350EA010402D052EA030404D11B
:100660000020014603B0BDE8F08FC3F30A54C1F384
:100670000A552C44A4F2F3340194A0FB0254C1F3B4
:10068000130141F48011C3F3130343F4801301FBFE
:10069000024400FB034E840A970A44EA815447EA65
:1006A0008357A4FB076802958D0A05FB07854FEA6F
:1006B000932C04FB0C542705029D4FEA065847EA89
:1006C0001637B5EB08056EEB070C870E920E47EA5E
:1006D000811742EA8312A7FB0201B6EB0B0164EB20
:1006E00000042B0D43EA0C335E1844EB1C50DA4631
:1006F0005146E7FB0201C5F313044FEA0B3343EA0B
:1007000014534FEA0432019C43EA0603A4F10C049B
:100710000294009CCDE900B4FFF796FEA2E7C1F376
:100720000A52C1F3130140F2FF3341F480119A429F
:1007300002DA00200146704740F233439A42A2F2A7
:10074000334202DC5242FFF762BEFFF751BE0000A7
:10075000064C074D06E0E06840F0010394E807000E
:1007600098471034AC42F6D3FFF712FD5837000813
:1007700078370008202A06DBCB17203A41FA02F02E
:1007800043EAE07306E041FA02F3D040C2F12002EE
:100790009140084319467047FEE770472DE9F84F2E
:1007A00000220127864D03264FF00F080B6807FA39
:1007B00002FC03EA0C03634540F0FC804C68012C0A
:1007C00018BF022C03D0112C18BF122C18D1D0F84E
:1007D0000890540006FA04FA29EA0A09D1F80CA094
:1007E0000AFA04F444EA09048460446824EA0C0C1C
:1007F0000C79C4F30014944044EA0C0CC0F804C013
:10080000D0F80C904FEA420CD1F808A006FA0CF48C
:1008100029EA04090AFA0CFA4AEA0909C0F80C9014
:10082000D1F80490B9F1020F18BFB9F1120F15D128
:100830004FEAD20900EB890ADAF820B04FEA427990
:100840004FEAD96908FA09FE2BEA0E0BD1F810E03D
:100850000EFA09F949EA0B09CAF82090D0F800907D
:1008600029EA040491F8049009F0030909FA0CFC40
:100870004CEA040CC0F800C0D1F804C01CF0805F42
:100880007ED0D5F800C04CF4804CC5F800C0D5F837
:1008900000C022F003040CF4804CCDF800C0DFF857
:1008A00024C16444D4F800904FEA827C4FEA1C7C57
:1008B00008FA0CFA29EA0A09A0F1804ABAF5003AC6
:1008C00038D0A0F1804ABAF5013A08BF4FF0010ACA
:1008D00030D0A0F1804ABAF5023A08BF4FF0020AC0
:1008E00028D0A0F1804ABAF5033A08BF4FF0030AB6
:1008F00020D0A0F1804ABAF5043A08BF4FF0040AAC
:1009000018D0A0F1804ABAF5053A08BF4FF0050AA1
:1009100010D0A0F1804ABAF5063A08BF4FF0060A97
:1009200008D0A0F1804ABAF5073A0CBF4FF0070A89
:100930004FF0080A0AFA0CFC4CEA090CC4F800C093
:10094000214CD4F800C0D1F804902CEA030C19F41F
:10095000803F18BF4CEA030CC4F800C01B4CD4F80D
:1009600000C0D1F804902CEA030C19F4003F18BF22
:100970004CEA030CC4F800C0154CD4F800C000E0E9
:1009800018E0D1F804902CEA030C19F4801F18BF6A
:100990004CEA030CC4F800C00E4CD4F800C0D1F8E7
:1009A00004902CEA030C19F4001F18BF4CEA030C46
:1009B000C4F800C0521C102AFFF4F8AEBDE8F88F4E
:1009C0004438024008380140003C0140043C0140EA
:1009D000083C01400C3C0140014880687047000021
:1009E00084000020024881680278114481607047C9
:1009F000840000200B4810B5016841F400710160CB
:100A0000016841F480610160016841F48071016016
:100A1000032000F075F8002000F006F800F024F83C
:100A2000002010BD003C024070B50D4D04464FF44F
:100A30007A712878B1FBF0F00A490968B1FBF0F04F
:100A400000F06CFB48B9102C07D200222146501E42
:100A500000F024F800206C6070BD012070BD000023
:100A600084000020900000200A4881B0016841F411
:100A700080410160006800F48040009006480168F1
:100A800041F080510160006800F08050009001B09A
:100A9000704700004438024040380240154B10B403
:100AA0001B68C3F30223C3F1070CBCF1040F88BF1A
:100AB0004FF0040C1C1D072C34BF0023DB1E012447
:100AC00004FA0CFCACF1010C0CEA0101994004FAA7
:100AD00003F35B1E1A40114300284FEA011103DBA8
:100AE000054A815410BC7047044A00F00F0081543D
:100AF00010BC70470CED00E000E400E014ED00E0F5
:100B0000074900F007000A684FF6FF031A4042EA5F
:100B1000002040F0FD7040F08060086070470000E9
:100B20000CED00E0002804BF012070472DE9F047DC
:100B30004D4E04460F46306801F0FF0800F00F00EC
:100B4000B84206D286F80080306800F00F00B84244
:100B500061D12068454D10F0020F14D010F0040F41
:100B600003D0286840F4E0502860207810F0080F87
:100B700003D0286840F4604028602868A16820F00D
:100B8000F00008432860207810F0010F37D060682B
:100B90003749012823D0022818BF0328096823D029
:100BA00011F0020F37D0296821F0030108432860B3
:100BB000FFF712FF81462868616800F00C00B0EB77
:100BC000810F18BF41F2883A19D000BFFFF704FF28
:100BD000A0EB090050450BD90320BDE8F087096858
:100BE00011F4003FDFD116E011F0007FDBD112E0FD
:100BF0002868616800F00C00B0EB810FE6D1306826
:100C000000F00F00B84209D986F80080306800F083
:100C10000F00B84202D00120BDE8F087207810F024
:100C2000040F05D02868E16820F4E05008432860EC
:100C3000207810F0080F06D02868216920F4604061
:100C400040EAC100286000F03BF82968094AC1F376
:100C50000311515CC8400849086008480068FFF764
:100C6000E3FE0020BDE8F087003C02400838024067
:100C700000380240BF3600089000002088000020A5
:100C80000448054900680968044AC1F38221515C9F
:100C9000C84070479000002008380240CF36000856
:100CA0000448054900680968044AC1F34231515CAF
:100CB000C84070479000002008380240CF36000836
:100CC0001848006810F00C02174808BF7047174911
:100CD000042A04BF08467047082A18BF704710B599
:100CE000134C2268236802F03F0213F4800F08D0EF
:100CF00020680023C0F38810A0FB0101FFF760FA11
:100D000007E021680023C1F38811A1FB0001FFF770
:100D100057FA2168C1F30141491C4900B0FBF1F0C9
:100D200010BD0000083802400024F40000127A00D0
:100D300004380240002804BF012070472DE9F84F15
:100D400004460078DFF8AC8310F0010FA8F1040529
:100D500058D008F10400016801F00C01042909D001
:100D6000006800F00C0008280DD1D8F8000010F43D
:100D7000800F08D0286810F4003F43D06068002836
:100D800000F0B1813EE06068B0F5803F19D0B0F569
:100D9000A02F28680CBF40F4802020F48030286009
:100DA00028680CBF40F4803020F480202860606800
:100DB000B8B1FFF711FE0646286810F4003F05D0D1
:100DC00020E0286840F480302860F0E7FFF704FE58
:100DD000801B642800F22781286810F4003FF5D0BA
:100DE00010E0FFF7F9FD0646286810F4003F09D02F
:100DF000FFF7F2FD801B642800F21581286810F4CB
:100E0000003FF5D12078BC4F10F0020F47D0BB480F
:100E1000016811F00C0F15D0006800F00C000828D4
:100E200004D1D8F8000010F4800F0BD0E06818B39C
:100E300001203860FFF7D0FD0646286810F0020F49
:100E400009D011E0286810F0020F1CBFE0680128EB
:100E50000AD000F048B9FFF7BFFD801B02287DD8FB
:100E6000286810F0020FF6D02868216920F0F800F9
:100E700040EAC100286012E000203860FFF7ACFDB6
:100E80000646286810F0020F09D000BFFFF7A4FD46
:100E9000801B022862D8286810F0020FF6D1207853
:100EA00010F0080F2AD09648964E616999B1012139
:100EB0000160FFF791FD8146306810F0020F1DD1EF
:100EC000FFF78AFDA0EB0900022847D8306810F030
:100ED000020FF5D012E000210160FFF77DFD814691
:100EE000306810F0020F09D0FFF776FDA0EB090083
:100EF000022833D8306810F0020FF5D1207810F0B6
:100F0000040F77D080484FF0000B006810F0805F2E
:100F10000AD17D48016841F08051016000684FF0BE
:100F2000010B00F080500090784E306810F4807F04
:100F300016D1306840F480703060FFF74DFD814677
:100F4000306810F4807F0BD1FFF746FDA0EB09005D
:100F5000022868D8306810F4807F00E063E0F3D0A6
:100F6000A0686B4E01281BD0052830680CBF40F0EC
:100F7000040020F00100306030680CBF40F0010038
:100F800020F00400C6F80000A06841F2883AB8B129
:100F9000FFF722FD8146306810F0020F05D021E0F6
:100FA000306840F001003060EEE7FFF715FDA0EB80
:100FB0000900504537D8306810F0020FF5D011E025
:100FC000FFF70AFD8146306810F0020F0AD000BF1B
:100FD000FFF702FDA0EB0900504524D8306810F05F
:100FE000020FF5D1BBF1010F04D14748016821F090
:100FF00080510160A069E8B34049096801F00C0123
:10100000082950D002284FF0000038660ED0FFF7B4
:10101000E3FC0446286810F0007F67D0FFF7DCFC93
:10102000001B02283AD90320BDE8F88FFFF7D4FC53
:101030000646286810F0007F09D000BFFFF7CCFCFF
:10104000801B0228EFD8286810F0007FF6D1D4E981
:1010500007010843A16A2F4A490802EB0141626A6D
:1010600041EA8211084394F82C1040EA0160C8F864
:10107000000000E03AE001203866FFF7ADFC0446CE
:10108000286810F0007F31D1FFF7A6FC001B022872
:10109000C9D8286810F0007FF6D027E0286810F043
:1010A000007FBBD122E0012808BFBDE8F88FD8F847
:1010B0000000E26900F48001914214D1226A00F03C
:1010C0003F0191420FD147F6C071626A01409142DF
:1010D00009D1A26A00F44031914204D1E16A00F0E2
:1010E0007060884202D00120BDE8F88F0020BDE882
:1010F000F88F0000043802400000474208380240E0
:10110000800E474274380240403802400070004070
:10111000703802400000FFFF70470000411EB1F12F
:10112000807F24BF012070474FF0E0204161044AD6
:10113000F0211170002181610721016100207047B9
:1011400023ED00E010B5FFF7E7FF10BD002804BF56
:101150000120704770B5044690F83900002520B989
:1011600084F83850204600F023F8242084F8390011
:101170002068C16821F40051C160204600F044F9A4
:101180002068016921F4904101612068416921F0E2
:101190002A0141612068C16841F40051C160E563E2
:1011A000202084F8390084F83A00002070BD000047
:1011B00000B587B000210091019102910391049143
:1011C0000068A0F18041B1F588411CBF07B000BDA7
:1011D0000F48016841F400310160006800F40030FC
:1011E00005900C48016841F0010101600068694602
:1011F00000F0010005900C200090022001900320D7
:101200000390072004900448FFF7C8FA07B000BD18
:101210004038024030380240000002402DE9F84FCB
:10122000044690F839001D4617460E4620287CD10A
:10123000002E12BF002F0120BDE8F88F94F838006F
:10124000012879D0012084F838004FF0000AC4F852
:101250003CA0212084F83900FFF7BEFBA78480461C
:10126000E78484F838A0E08C4FF02009002851D0A2
:10127000E08C401EE084A0684FF08007B0F5805FEE
:101280002068006827EA00001DD000283BD0681CB9
:1012900034D02DB1FFF7A0FBA0EB0801A9422DD956
:1012A0002068C16821F4D071C1602068416921F0D3
:1012B0000101416184F8399084F83A9084F838A0AB
:1012C0000320BDE8F88F70B1681C07D0002DE7D06F
:1012D000FFF782FBA0EB0801A942E1D82068006873
:1012E00037EA0000F0D130882168C0F30800486078
:1012F000206900280CBFB61C761C08E02068006836
:1013000037EA0000C3D1216816F8010B4860E08C71
:101310000028ADD14346002240212046009500F030
:101320003DF9002818BF032000E005E004BF84F861
:1013300039900020BDE8F88F0220BDE8F88FFEE765
:10134000FEE7FEE77047704710B5FFF74BFBBDE8BF
:101350001040FFF7F7BE000030B593B000252148DC
:1013600002950395049505950C950D950E950F9591
:101370001095016841F080510160006800F08050D4
:1013800011901948016841F480410160006802240D
:1013900000F4804011900120009000040190800131
:1013A000CDE906400420CDE90A40A821CDE9080195
:1013B0006846FFF7BFFC08B172B6FEE70F20CDE923
:1013C0000C044FF4A050CDE90E504FF48050109013
:1013D00005210CA8FFF7A6FB002804BF13B030BD01
:1013E00072B6FEE7403802400070004004480168D1
:1013F00041F47001016003494FF0006008607047DC
:1014000088ED00E008ED00E02DE9F04104460068B9
:101410000169E26821F44051114301612169A0682A
:10142000E26908436169114308432168CA6822F4EC
:10143000037222F414421043C86020684169A26913
:1014400021F4407111434161E16919263227B1F558
:10145000004F4F4A4F48504D21684FF0000825D0AB
:10146000814218BF914270D1FFF71AFC61688B0F5F
:101470008A00A0FB0601FEF7A3FE0146A5FB0120A2
:1014800040096FF01802424301EB820107EB0111A2
:10149000A5FB0121490901F0F00202EB001001F067
:1014A0000F01084421688860BDE8F081814218BFBF
:1014B000914224D1FFF7F4FB61684A18A0FB0601B2
:1014C00048EB0803FEF77CFE0146A5FB012042091C
:1014D00008466FF01801514300EB810007EBC00094
:1014E000A5FB00101301400900F0F80103EB4101D6
:1014F00000F00700084421688860BDE8F081FFF72C
:10150000BFFB61684A18A0FB060148EB0803FEF721
:1015100057FE0146A5FB0120420908466FF018015D
:10152000514300EB810007EBC000A5FB0010130145
:10153000400900F0F80103EB410100F00700084406
:1015400021688860BDE8F081FFE7FFF799FB6168DB
:101550008B0F8A00A0FB0601FEF732FE0146A5FBB9
:10156000012040096FF01802424301EB820107EBB2
:101570000111A5FB0121490901F0F00202EB001065
:1015800001F00F01084421688860BDE8F081000087
:1015900000140140001001401F85EB512DE9F0417E
:1015A00004460068069F9846006815460E4631EAD4
:1015B00000000CBF01200020A84226D1781C1BD0BF
:1015C0002FB1FFF709FAA0EB0800B84214D9206840
:1015D000C16821F4D071C1602068416921F0010126
:1015E0004161202084F8390084F83A00002084F812
:1015F00038000320BDE8F0812068006836EA00006A
:101600000CBF01200020A842D8D00020BDE8F08106
:10161000FEE700000FB4054B10B503A9044A029879
:1016200000F0C6F810BC5DF814FB00001D2800088F
:101630009400002002E008C8121F08C1002AFAD155
:1016400070477047002001E001C1121F002AFBD142
:10165000704700002DE9FF5FDDE90220010DDDF894
:1016600038B0024310D10F9801244CA2012808D0B1
:10167000002100980F9BC0E90021C0E90243BDE8AA
:10168000FF9F6FEA0B01F4E7A1F2FF3144F610501F
:1016900041430D140F9801280ED0A5EB0B00401C00
:1016A0004FF000043E4EDFF8FC90B0F1000AA04677
:1016B00005DACAF1000717E0CBF10000F0E70746B2
:1016C00012E0F80707D02246334640464946FEF767
:1016D000B4FF804689462246334610461946FEF737
:1016E000ACFF04460E467F10002FEAD1DDE902016F
:1016F000BAF1000F42464B4602DAFEF79EFF01E0C8
:10170000FEF78FFD04460E460022274BFEF746FEED
:1017100003D84FF0FF30014607E00022234B20465C
:101720003146FEF7E3FEFEF7FAFF102409E0002C35
:101730000ADB0A220023FEF743FD019B30321A55D3
:10174000641E50EA0102F2D1641C019AC4F1110333
:1017500014440F9A012A09D00122084301D15B45A4
:101760000FDD4FF0000205F101050DE0084303D144
:10177000A3EB0B056D1E09E000204FF0110B0F903D
:1017800088E701DA00226D1E002A83D000980F99A5
:10179000C0E90231C0E9004571E7000030000000F7
:1017A000000024400000F03F0000F0430000E03F54
:1017B0002DE9FF4F95B09B4689460646002512E26B
:1017C000252878D10024761CF94A27460121059462
:1017D0003378203B01FA03F0104202D00443761C18
:1017E000F6E730782A2811D06FF02F033078A0F177
:1017F0003002092A16D8059A44F0020402EB82024C
:1018000003EB42021044761C0590EFE759F8042BD5
:101810000592002A03DA504244F40054059044F043
:101820000204761C30782E2816D116F8010F44F0E9
:1018300004042A280DD06FF02F023078A0F1300375
:10184000092B09D807EB870302EB4303C718761C63
:10185000F3E759F8047B761C30786C280FD006DC4F
:101860004C2817D068280DD06A2814D104E07428B9
:1018700010D07A280FD10DE044F400140AE044F4AB
:10188000801401E044F440147278824202D1761C44
:1018900004F58014761C307866280BD013DC5828A9
:1018A00077D009DC002875D04528F6D04628F4D03A
:1018B00047281AD19FE118E0632835D0642879D0F1
:1018C000652812D197E1702873D008DC6728F1D021
:1018D00069286FD06E280DD06F2806D1B5E0732827
:1018E0002CD0752875D0782874D05A46179990470F
:1018F0006D1C76E1C4F30250022809D003280DD0F4
:10190000D9F8001004280DD00D6009F1040968E130
:10191000D9F80010EA17C1E90052F6E7D9F800102B
:101920000D80F2E70D70F0E719F8041B8DF8001038
:1019300000208DF80100EA46012003E059F804ABCD
:101940004FF0FF3061074FF0000102D40DE008F1C5
:1019500001018846B9420FDA8045F8DB1AF8081011
:101960000029F4D108E008F1010188468142FADB40
:101970001AF808100029F6D105985B46A0EB080775
:1019800021463846179A00F09EFA284400EB0805D5
:1019900007E04DE02BE10DE01AF8010B5A461799CC
:1019A0009047B8F10108F7D25B4621463846179AAE
:1019B00014E142E00A220092C4F302524FF0000AFE
:1019C000022A08D059F804CB032A4FEAEC710AD056
:1019D0000DE029E02AE009F1070121F00702F2E811
:1019E00002C1914609E00FFA8CFC4FEAEC71042A1F
:1019F00003D14FFA8CFC4FEAEC71002907DA0A4652
:101A00000021DCF1000C61EB02012D2202E0220535
:101A100004D52B228DF80420012203E0E20701D037
:101A20002022F7E7904653E00A2102E010220DE061
:101A300010214FF0000A00910BE010224FF0000A35
:101A400044F004040827009203E008224FF0000A43
:101A50000092C4F30252022A05D059F804CB0021A7
:101A6000032A08D009E009F1070121F00702F2E892
:101A700002C1914605E01FFA8CFC042A01D10CF04A
:101A8000FF0C4FF00008220722D5702827D0009BBA
:101A900083F0100353EA0A0309D15CEA010206D07D
:101AA00030228DF804208DF8050002229046009B1C
:101AB00083F0080353EA0A030AD15CEA010201D168
:101AC000620705D530228DF804204FF001087F1EF3
:101AD000582809D037A003900EA8029013E04022A6
:101AE0008DF804200122E1E737A0F4E75346604671
:101AF000009AFEF765FB84460398825C0298A0F189
:101B00000100029002705CEA0100EFD1029806A980
:101B1000A1EB000000F1200A600702D524F4803414
:101B200000E00127574502DDA7EB0A0000E0002096
:101B300000EB0A01009005984144A0EB01000590DC
:101B4000E00306D45B462146179A059800F0BBF9DE
:101B50000544002706E001A85A46C05D1799904742
:101B60006D1C7F1C4745F6DBE0030CD55B46214628
:101B7000179A059800F0A7F9054404E030205A466A
:101B8000179990476D1C0099481E00900029F5DCBC
:101B900008E0029802995A460078491C0291179968
:101BA00090476D1CBAF10001AAF1010AF1DC6BE16A
:101BB0000928010030313233343536373839616223
:101BC00063646566000000003031323334353637E7
:101BD00038394142434445460000000000F060F9B6
:101BE000054406F10106307800287FF4E9AD19B00C
:101BF0002846BDE8F08F620700D4062709F10702E6
:101C000022F0070CFCE80223E14603F000485FEAFB
:101C1000080C02D00FF27C2C0DE05FEA045C02D5C8
:101C20000FF2742C07E05FEAC47C02D00FF26C2C38
:101C300001E0AFF2700C4FF0FF3823F00043CDF815
:101C400050C065280CD006DC452809D046281DD098
:101C500047283ED13EE0662818D0672839D139E0C0
:101C60000021112F01DB112000E0781CCDE90001DB
:101C700006A90EA8FFF7EEFCDDE90F010E9A03910D
:101C80000021009207F1010A04914EE04FF000405C
:101C90000097CDE9011006A90EA8FFF7DBFCDDE9EE
:101CA0000F0203920E9B11990022DDF80CA0009305
:101CB000049219B907F1010100EB010AB7EB0A0020
:101CC00004D4C0F1FF3007F1010A0490AAEB070029
:101CD000019046E0012F00DA01270021112F01DDDC
:101CE000112000E03846CDE9000106A90EA8FFF753
:101CF000B1FCDDE90F010E9A0391002104910092DD
:101D0000BA4621070CD40399514500DA8A46BAF144
:101D1000010F05DD009AAAF10101515C302908D0BC
:101D2000B84202DA10F1040F06DA0121CDE9011000
:101D300017E0AAF10101E9E7002805DC0499014454
:101D40000491AAEB000102E0411C514500DD8A46E6
:101D50000499A0EB010000F1010001904FF0004058
:101D60000290200704D40198504501DBCDF804808F
:101D700000208DF84F0002980DF14F07B0F1004F91
:101D800025D02B200E9002984FF0020800280CDA84
:101D9000404202902D200E9007E00A210298FEF7A3
:101DA00011FB3031029007F8011DB8F10001A8F1D4
:101DB0000108F2DC02980028EFD1791E0E98087015
:101DC000307800F0200040F0450007F8020D12A81E
:101DD000A0EB070000F107081498007800B101207B
:101DE00000EB0A01019801EBE07105984144A0EB7A
:101DF0000100A0F101000590E00306D45B462146F6
:101E0000179A059800F05FF805441498007820B1FF
:101E10005A461799904705F10105E00323D55B4623
:101E20002146179A059800F04EF805441BE00498E7
:101E3000002807DBDDE90301884203DD0098405CF0
:101E4000179901E0179930205A46904704986D1C65
:101E5000401C04900198401E019004D12E205A4647
:101E6000179990476D1CBAF10001AAF1010ADEDC56
:101E700005E017F8010B5A46179990476D1CB8F109
:101E80000001A8F10108F4DC5B462146179A059889
:101E9000A4E600002D0000002B0000002000000040
:101EA0002DE9F041044600251E461746880405D456
:101EB00006E039462020B04705F10105641EF8D53B
:101EC0002846BDE8F0812DE9F041044600251E4674
:101ED0009046C80301D5302700E02027880405D5A7
:101EE00006E041463846B04705F10105641EF8D5C5
:101EF0002846BDE8F081F0B5B0F900600746C6F3AA
:101F0000C01083B00C4600281EBF06F07F0003B04F
:101F1000F0BD16F00700C6F3C30141EA011112D06B
:101F2000012818BF354622D0218FA8B200F046FC08
:101F3000208705F07F0006F47F41014341F08001D6
:101F4000398003B0F0BD2229B8BF2221208FCDE90E
:101F50000010D4E90510B4F90230B4F9002000F003
:101F60000CF905B2E08F002808BFE587DCE7228F77
:101F700004F1280000F0F0F805B2A08F002808BF97
:101F8000A587D1E70020704770B50E46154611466B
:101F9000FFF7B1FF044629463046FFF7ACFF201A91
:101FA00070BD6AB9028802F47F43C2F307221A4364
:101FB00002800A8802F47F43C2F307221A430A8090
:101FC000B0F90200B1F90210401A70472DE9F05F34
:101FD0000023B0F904A08946456A024698461F4688
:101FE00069F31F469C46BAF1000F47DD0CF0FF0075
:101FF00060F30F062C46311408D484B16068B0F940
:102000000200884218BF2468F7D108E03CB1D4F838
:1020100004B09BF800B0834518BF2468F6D10020B7
:102020003DB100BFD5F800B0286028465FEA0B0537
:10203000F8D10546002C4AD008F101001FFA80F8BB
:102040006068B0F9000010F0010F03D0C0F3402029
:10205000184483B2206830B1D0F800B0C4F800B0A2
:102060002C68046028600029A4BF481C60F31F4648
:102070000CF101000FFA80FCD445B7DBC7EB8800F8
:10208000184487B2B9F1000F04DD3149284600F049
:1020900047FA05462868D0E90081D8F80420426054
:1020A000C8F804100168096801600020C8F8000041
:1020B000311428460029B8BF31B212DBD0B14268D2
:1020C000B2F902208A4218BF0068F7D110E0781CEC
:1020D00087B2286840680088C0F30020184483B2A3
:1020E000C1E738B1426812788A4218BF0068F8D157
:1020F000044601E02C684CB168683946B0F900002C
:1021000000F036FB24680746002CF5D12868D8F883
:1021100004104268C8F8042041600168C8F8001043
:10212000C0F8008000220B49284600F0F9F9046845
:1021300005464CB168683946B0F9000000F018FB5C
:1021400024680746002CF5D13846BDE8F09F000012
:10215000891F0008A31F000838B51546D0E90123E0
:10216000D0F800C0C46800912146604601F078F8BC
:102170002946BDE8384000F0FBBA2DE9F04794B09D
:1021800005460020DDE91C690A900B900C900F9029
:1021900010900D900E901190009001900C460290BE
:1021A0000390049005900690CDE9070420789846A6
:1021B00092466F4660B10AA908A800F005FA57F8E0
:1021C0002010491C47F82010089800780028F2D108
:1021D00025440894A54288BF0AF0FF0209D908984F
:1021E00001782C291CBF5140017030440890854271
:1021F000F5D80894207860B10AA908A800F0E4F99D
:1022000057F82010491C47F820100898007800283B
:10221000F2D10894A54288BF08F0FF0209D90898B6
:1022200001782C291CBF5140017030440890854230
:10223000F5D800240AAD57F82400494600F0E2FA28
:1022400055F824200146104600F0DCFA641C814653
:10225000082CF0D314B0BDE8F0872DE9F04F00242E
:102260004FF0010C002A08BF0122002805D9641C88
:1022700004FB04F5ED00A842F9D8491E601E21F0C8
:10228000030101F1040B00FB00FE0BEB4E0A4FF0C3
:102290000008002821D908FB00F10AEB41050BEBEF
:1022A0004104002107460CEB010909FB02F2D61795
:1022B00002EB16466FF30F06921B09EB020625F898
:1022C000026B4E44F6B2491C24F8026B7F1EEAD121
:1022D00008F1010884448045DDD30AEB4E01C3E9CF
:1022E00001BA491E21F00301091DD9601860BDE83B
:1022F000F08F00002DE9F84F4FF0000CA0F101081D
:10230000644666466746B8F1010F4DD9DFF8F49090
:1023100009F1100A09F1200B1DE0E4B102EB0C00F9
:10232000731E0090401E14F0010F03D013F801CF6C
:1023300000F801CF5FEA540C08D05D78457013F8BF
:10234000025F00F8025FBCF1010CF6D1009B2C206B
:102350000EF1010C1855481C01B201F007000828C5
:102360001CD2DFE800F00404040A0A0F0F15C1F3C1
:10237000C100042459F8206010E0C1F3C1005AF8EC
:10238000206003E0C1F3C1005BF82060082405E091
:102390001D48C1F3C103082450F823600CEB040E60
:1023A0000EF101004045B8D308F10100B0F1004F33
:1023B00038BFBCF1004F0BD3604598BFBDE8F88F24
:1023C00002F80C700CF1010C8445F9D3BDE8F88FCC
:1023D000A0EB0C010029D8BFBDE8F88F02EB0C0080
:1023E000401E11F0010F18BF00F8017F491008BF0F
:1023F000BDE8F88F477000F8027F491EFAD1BDE8AA
:10240000F88F000040000020700000202DE9F00F40
:102410001423B0FBF3F0871E01EBC70400234C60CC
:102420000B606380D1F804C048F280030846ACF822
:10243000003001F1080C231D103104EB870547F62D
:10244000FF794FF0FF36A1423CBF03F10408A845D5
:102450000DD26146D0F80080C1F8008001604B6069
:1024600019460CF1080C0E801B1DA1F802900021EA
:10247000002F23D982EA010606F00F080E4668F302
:10248000DF0646EA062A0CF10806A6423CBF03F125
:102490000408A8450FD2E0460668C8F80060C0F8F6
:1024A00000801E46C8F80430A6F800A00CF1080C05
:1024B0001B1DA6F80290491CB942DBD30368012119
:1024C000D3F800C0BCF1000F1FD0DFF84CC0ACFB4C
:1024D000074C4FEA9C048C4205D9D3F804C0ACF8F1
:1024E0000210491C0BE081EA020C491C01F00705AF
:1024F0004CEA052C5D68CCF30D0CA5F802C01B68F6
:10250000D3F800C0BCF1000FE5D1BDE8F00F002208
:10251000024900F005B80000CDCCCCCCA31F0008C8
:102520002DE9F74F82464FF0010900BF5FEA0A0527
:102530004FF0000A5746D34640D000BF00260BF1AB
:10254000010B2C463046B9F1000FD8BFC84624DD38
:102550002468761C002C1CBF401C4845F8DBC8468C
:10256000002E1ADD7EB1B8F1000F18BF002C06D086
:10257000DDE90132616868689847002803DC284675
:102580002D68761E03E020462468A8F10108002F7C
:1025900014BF386082460746E2E7B8F1000F02DD5B
:1025A000002CDFD101E02500C8D100203860BBF14C
:1025B000010FC8BF4FEA4909B8DC01E00020006004
:1025C00003B05046BDE8F08F0368844600201A78B7
:1025D000002A00F0CA802C2A5BD0A2F13000092822
:1025E00033D80A680420521C0A6013F8012F002A0D
:1025F00000F0BB802C2A7AD05EE000BFA2F1300050
:1026000009286ED88A690720521C8A6113F8012FA5
:10261000002A67D02C2A79D169E02B2A18BF2D2AED
:1026200075D0CA680120521CCA6060E0A2F1300077
:1026300009282FD88A680420521C8A6013F8012FB9
:10264000002A4FD02C2A52D036E02B2A18BF2D2A30
:102650000AD02E2A13D04A680120521C4A600A6808
:10266000521C5B1C0A6080E00A680220521C0A604F
:1026700013F8012F002A78D02C2A38D0D6E70A6820
:102680000520521C0A6013F8012F002A6DD02C2A55
:102690002FD12CE02E2A04D08A680120521C8A6097
:1026A00025E08A680520521C8A6013F8012F002A51
:1026B0005BD02C2A1DD11AE02E2A08D0303A092AE4
:1026C00011D813F8012F6AB12C2AF5D10FE00A694D
:1026D0000520521C0A6113F8012F1AB12C2A08D1C7
:1026E00005E02EE040E00A690120521C0A615B1CF3
:1026F0003BE0452A18BF652A0AD0303A092A11D88A
:1027000013F8012F82B32C2AF3D1F0E71EE00EE07C
:102710004A690320521C4A6113F8012F22B32C2A64
:10272000E5D07AE74A690120521C4A61DFE7CA68AE
:102730000620521CCA6013F8012FAAB12C2AD6D049
:102740005CE78A690120521C8A61D0E7303A092A85
:1027500005D813F8012F3AB12C2AF7D1C7E74A68F8
:102760000120521C4A60C2E7FFE7CCF800307047F6
:1027700010B41FFA80FC0CF0FF0008224AF201039B
:1027800080EA010414F0010F4FEA500014BF83EAFD
:1027900051014908521EF3D108464FEA1C22082174
:1027A00082EA000C1CF0010F4FEA520214BF83EAC8
:1027B00050004008491EF3D110BC704710B4844645
:1027C000C0B208224AF2010380EA010414F0010FAA
:1027D0004FEA500014BF83EA51014908521EF3D159
:1027E00008464FEA1C22082182EA000C1CF0010F67
:1027F0004FEA520214BF83EA50004008491EF3D149
:1028000010BC704710B5044600B2FFF7B1FF2214A8
:102810000146BDE810401046FFF7AABF13B54FF6BA
:10282000FF73012269460348FEF7F8FC009802B0E6
:1028300010BD000098000020062810D2DFE800F04C
:102840000F0306080B0D074800687047064800E0B4
:102850000648006870470648FBE70648F9E700208D
:1028600070470000200000202400002028000020E5
:102870002C00002030000020024841680068081A3F
:1028800070470000380000202DE9F34F2DED068B36
:10289000ADF6240D00240A4625464FF0FF38A14628
:1028A0000DF63C0102AF0DF14A0000F08AFE012056
:1028B000FFF7C2FFADF808000220FFF7BDFFADF83B
:1028C0000A000320FFF7B8FFADF80C000420FFF763
:1028D000B3FF09900520FFF7AFFF0A90002804BF5F
:1028E00007200A90BDF9080066214FF0000A002871
:1028F00004BFBDF80A20002A05D1BDF80C20002A2B
:1029000008BFADF80C10012801BFBDF80A0000286F
:10291000BDF80C00002807D143F21540ADF80800BF
:10292000ADF80A00ADF80C1014A804904FF4FA604A
:1029300008900A98ADF848A010F0010F4FF0010B75
:1029400018BF01250A9810F0020F18BF6D1C0A98D5
:1029500010F0040F18BF6D1C0898B0FBF5F008903C
:102960000A9810F0010F05D00899049801FB0400A3
:10297000012405900A9810F0020F05D008990498D8
:1029800001FB0400641C06900A9810F0040F04D0A8
:102990000899049801FB04000790002505EB051633
:1029A00007EB860494F8200010F0010F06D037F9E9
:1029B0002620E1680898FFF729FD606294F820005E
:1029C00010F0020F0AD037F92610608804F12803AE
:1029D00041EA004221690898FFF73FFC94F8200083
:1029E00010F0040F05D037F9261062690898FFF738
:1029F00081FC681C05042D0CD0D09FEDFDAB09981F
:102A0000002852D1B0EE4A8AF0EE6A8A9FEDFA9B16
:102A1000CDF824B034E0099800EB80004000099024
:102A200000F0D6FD099EADF840A0ADF844A0002509
:102A300002ACADF842A0ADF846A0002E16D9012197
:102A40002046FFF7C3FA218FFFF7B8FE20874FF02B
:102A5000FF312046FFF7BAFA218FFFF7AFFE20873C
:102A6000002D08BF60876D1CB542E8D300F0B8FDAB
:102A7000FFF702FF00F0BCFDB0EE408AF0EE608A86
:102A800053EC192B51EC180BFDF774FCC3D351EC2C
:102A9000180BFDF742FC002808BF01200A21B1FBFA
:102AA000F0F00999401C4843099000F091FD099D00
:102AB000ADF840A0ADF844A0002602ACADF842A0AD
:102AC000ADF846A0002D16D901212046FFF77EFA69
:102AD000218FFFF773FE20874FF0FF312046FFF76D
:102AE00075FA218FFFF76AFE2087002E08BF6087E6
:102AF000761CAE42E8D300F073FDFFF7BDFE0090F8
:102B0000BDF908000021FFF733FEBDF90A20014698
:102B10001046FFF72DFEBDF90C2001461046FFF7C9
:102B200027FE089A014612B21046FFF721FE47F62B
:102B30000532811AB24D0190904204BF4FF0010856
:102B4000B0A026D010DCA0F5C050F23804BF4FF082
:102B50000408B7A01DD0A0F55450BD3804BF4FF0F5
:102B60000208BEA015D00BE0A1F56060FD380AD0C8
:102B7000A0F5BE40F33804BF4FF00308C4A008D04E
:102B80004FF0FF3959E04FF00008CDA0FEF742FDAD
:102B900001E0FEF73FFD28680024002888BFDFF829
:102BA00050B34AD904EB041007EB8006A6F840A006
:102BB00096F8200010F0010F0DD0728F3BF81830FE
:102BC0009A4208D02146CBA0FEF724FDB6F840007B
:102BD000401CA6F8400096F8200010F0020F0ED01E
:102BE000D048B28F30F818309A4208D02146CEA093
:102BF000FEF710FDB6F84000401CA6F8400096F81D
:102C0000200010F0040F0ED0D448F28F30F81830A6
:102C10009A4208D02146D2A0FEF7FCFCB6F840004C
:102C2000401CA6F84000B6F8400048440FFA80F96E
:102C3000601C84B228688442B4D3FFF7A3F94844E7
:102C400006B2D3A00899FEF7E5FCD7A00099FEF7DD
:102C5000E1FC009800F0CCFC53EC102BD8A0FEF760
:102C6000D9FC009800F0C4FC53EC1A2B51EC100B6B
:102C7000FDF794FB16D2009800F0BAFC0998296879
:102C8000B0EE408AF0EE608A4843FDF739FB53EC22
:102C9000182BFDF7C6FA41EC100BCFA053EC102B0C
:102CA000FEF7B8FC009800F0A3FC9FEDD11B51EC9F
:102CB000100B53EC112BFDF75DFB04D2CEA0FEF7F9
:102CC000A9FC701C06B2099829684143DAA0FEF7F6
:102CD000A1FCDFA1E6A0FEF79DFCEBA1EBA0FEF7B7
:102CE00099FCF0A1F1A0FEF795FCF6A00199FEF782
:102CF00091FC0A9810F0010F12D0286800240028D7
:102D00000ED900BF04EB041007EB80002146428F70
:102D1000F3A0FEF77FFC601C84B22868A042F1D8C3
:102D20000A9810F0020F11D02868002400280DD94D
:102D300004EB041007EB80002146828FEFA0FEF722
:102D400069FC601C84B22868A042F1D80A9810F08F
:102D5000040F11D02868002400280DD904EB0410BA
:102D600007EB80002146C28FEBA0FEF753FC601CEE
:102D700084B22868A042F1D82868002400280DD920
:102D800004EB041007EB80002146028FE9A0FEF758
:102D900041FC601C84B22868A042F1D8002EC8BF54
:102DA000EBA004D020DD00BFFEF734FCECE1ED48E1
:102DB000FEF730FCB8F1030F17D1009800F018FCB3
:102DC00009982968B0EE408AF0EE608A4843FDF722
:102DD00097FA53EC182BFDF724FA41EC100BAAA13B
:102DE0009BA053EC102BBFE1CBE1CDE10000000034
:102DF0000000000000000000000000000000F03FA4
:102E000034000020366B2076616C69646174696FF0
:102E10006E2072756E20706172616D65746572737B
:102E200020666F7220636F72656D61726B2E0A008F
:102E3000324B2076616C69646174696F6E207275C3
:102E40006E20706172616D657465727320666F7259
:102E500020636F72656D61726B2E0A0050726F662F
:102E6000696C652067656E65726174696F6E20724A
:102E7000756E20706172616D657465727320666F26
:102E80007220636F72656D61726B2E0A0000000024
:102E9000324B20706572666F726D616E6365207271
:102EA000756E20706172616D657465727320666FF6
:102EB0007220636F72656D61726B2E0A00000000F4
:102EC000366B20706572666F726D616E636520721D
:102ED000756E20706172616D657465727320666FC6
:102EE0007220636F72656D61726B2E0A00000000C4
:102EF000000000205B25755D4552524F5221206C29
:102F00006973742063726320307825303478202D03
:102F10002073686F756C64206265203078253034CA
:102F2000780A00000A0000205B25755D4552524F6B
:102F30005221206D61747269782063726320307849
:102F400025303478202D2073686F756C642062659D
:102F5000203078253034780A00000000140000206A
:102F60005B25755D4552524F522120737461746523
:102F70002063726320307825303478202D207368E8
:102F80006F756C64206265203078253034780A00D3
:102F9000436F72654D61726B2053697A6520202002
:102FA000203A20256C750A00546F74616C20746996
:102FB000636B732020202020203A20256C750A00A6
:102FC000546F74616C2074696D6520287365637338
:102FD000293A2025660A0000497465726174696F98
:102FE0006E732F5365632020203A2025660A000067
:102FF00000000000000024404552524F5221204D55
:10300000757374206578656375746520666F7220CA
:103010006174206C65617374203130207365637353
:1030200020666F7220612076616C6964207265731E
:10303000756C74210A000000497465726174696FCF
:103040006E73202020202020203A20256C750A0055
:103050004B65696C2056352E30362075706461746E
:1030600065203720286275696C6420393630290064
:10307000436F6D70696C65722076657273696F6EEF
:10308000203A2025730A00002D6F3300436F6D70C6
:10309000696C657220666C6167732020203A202578
:1030A000730A0000535441434B0000004D656D6F9F
:1030B0007279206C6F636174696F6E20203A2025ED
:1030C000730A00007365656463726320202020200A
:1030D00020202020203A203078253034780A000043
:1030E0005B25645D6372636C69737420202020200B
:1030F00020203A203078253034780A005B25645D42
:103100006372636D617472697820202020203A20F8
:103110003078253034780A005B25645D6372637310
:10312000746174652020202020203A2030782530DA
:1031300034780A005B25645D63726366696E616C56
:103140002020202020203A203078253034780A00B2
:103150004572726F72732064657465637465640A86
:103160000000000010360008CDE900010CA0FEF7B9
:1031700051FAAFF2D00111A0FEF74CFAAFF24C10A9
:1031800012E61048FEF746FA07F1420000F016FA80
:103190000DF6240D0020BDEC068B02B0BDE8F08FCB
:1031A000436F72654D61726B20312E30203A2025BD
:1031B00066202F202573202573000000202F202556
:1031C000730000005C36000808B5FDF713FCFEF73D
:1031D000C3F819480021026842F0800202600268C8
:1031E00002F080020092026842F001020260006870
:1031F000124A00F001000090114802604FF416528C
:10320000C0E901210C22C160C0E904128161C161E1
:10321000FDF79CFF08B172B6FEE70A480068FDF7AB
:1032200095F841EC100B01B053EC102B06A05DF8A3
:1032300004EBFEF7EFB900003038024000440040D4
:10324000980000208000002048656C6C6F20776F2C
:10325000726C64203D2025302E3366200D0A00005C
:103260002DE9FF4F91B01E981E9A40F4704000B2B5
:103270000C901198139900FB00F30493DBB110F04C
:10328000010004D0B1F800C09444A1F800C0DDF8FA
:1032900010C084450FD900BF31F810C0944421F804
:1032A00010C001EB400C801CBCF802408342144467
:1032B000ACF80240F0D8DDF810C0139B1E9ADDE98F
:1032C0001101BCF1000F19D010F0010003D0B3F9C7
:1032D000004054430C60844510D900BF33F91040BE
:1032E00001EB8005544341F8204003EB4004801C6F
:1032F000B4F9024054436C608445EFD80024049B29
:103300000C9D129AA44620462146002B0DD900BFE1
:1033100052F821603444AC4240F332810A3000B2AA
:103320000024491CB4468B42F2D80021FFF720FA52
:103330000190DDE91157DDE913BA4FF0000C002DC3
:1033400084BF4FEA55094FF000082AD90CFB05F15C
:103350000BEB41018B1E47F82C804046AAF102027C
:1033600015F0010F05D033F8021F32F8024F11FBA0
:10337000048000245FEA09010CD05E88B2F802E004
:1033800016FB0E0033F8046F32F804EF16FB0E4400
:10339000491EF2D1204447F82C000CF1010CAC4539
:1033A000D4D30022049BDDF830C0129E154610468F
:1033B0001146002B0DD900BF56F82140224462452A
:1033C00040F3E7800A3000B20022491C25468B42B8
:1033D000F2D80199FFF7CCF90190DDE911071399B3
:1033E0000991149900260D91002888BF4FEA5008D2
:1033F00039D90025002833D9099A06FB00F102EBE0
:10340000410A06FB0059002147F829102B1A0D9A92
:10341000AAF1020C02EB430310F0010F06D003EBFC
:1034200040033CF8022F1C8812FB041100245FEAC1
:1034300008020FD0BCF802B033F810E01BFB0E11ED
:1034400003EB80033CF804BFB3F800E01BFB0E4421
:10345000521EEFD121446D1C47F829108542D0D36C
:10346000761C8642C5D30023049C0C9E129D1A46EE
:1034700018461946002C0BD955F821C06344B342B5
:103480007DDD0A3000B20023491C62468C42F3D82D
:103490000199FFF76DF90190DDE9110813990A917F
:1034A0000027DDF850B0002888BF4FF0000928D968
:1034B0000024002822D90A9907FB00F201EB420AF6
:1034C00007FB004E494648F82E9052460BEB44034A
:1034D0004FEA000532F802CB1E881CFB06FCCCF339
:1034E0008306CCF3461C16FB0C1103EB40036D1E48
:1034F000F0D1641C48F82E108442E1D37F1C87422F
:10350000D6D30023049CDDF830C0129D1E46184619
:103510001946002C0CD900BF55F8212013446345EF
:1035200045DD0A3000B20023491C16468C42F3D810
:103530000199FFF71DF91E9BDDF810C05B42139A3D
:1035400011991BB2BCF1000F15D011F0010102D08E
:1035500014881C4414808C450DD900BF32F81140EA
:103560001C4422F8114002EB4104891C65888C45FB
:103570001D446580F2D815B000B2BDE8F08F0FE0B1
:103580006645CCBF4FF0010C4FF0000C604400B218
:10359000C7E6AC42CCBF01250025284400B214E7A1
:1035A0009445CCBF01220022104400B26CE7B24225
:1035B000CCBF01260026304400B2B5E700210170DF
:1035C000704710B50446FFF7FFFD0120207010BDC5
:1035D00010B5FDF701FA0149086010BD3800002060
:1035E00010B5FDF7F9F90149486010BD3800002019
:1035F00010B5FCF785FE9FED041B53EC112BFCF777
:1036000010FE41EC100B10BD0000000000408F4088
:10361000436F7272656374206F7065726174696F55
:103620006E2076616C6964617465642E20536565F3
:1036300020524541444D452E6D6420666F722072C4
:10364000756E20616E64207265706F7274696E674A
:103650002072756C65732E0A0000000043616E6E67
:103660006F742076616C6964617465206F70657237
:103670006174696F6E20666F72207468657365206F
:10368000736565642076616C7565732C20706C655C
:1036900061736520636F6D7061726520776974680E
:1036A00020726573756C7473206F6E2061206B6E71
:1036B0006F776E20706C6174666F726D2E0A0000F9
:1036C00000000000000000010203040607080900D2
:1036D0000000000102030433352E3534343030004D
:1036E0002B302E3634343030002E313233343530F6
:1036F00030002D3131302E373030002D2E31323325
:10370000652D32002B302E36652D313200353031AB
:1037100032002B313232002D3837652B38333200EE
:10372000352E353030652B330031323334002D38AF
:1037300037340054302E33652D31460033342E306B
:10374000652D545E002D542E542B2B547100315492
:10375000332E3465347A00007837000800000020EA
:103760009800000034160008103800089800002067
:103770004020000044160008B0D44033796A14E7B2
:10378000C1E352BE99110856D71F4707475EBF399C
:10379000A4E53A8E848D00000000000000000000C7
:1037A00066000000401F0000000000000100000053
:1037B00000000000000000000D3700082937000855
:1037C0002E37000812370008D7360008E9360008FF
:1037D000F2360008E036000820370008FB36000803
:1037E000173700080437000833370008453700084A
:1037F0004E3700083C3700080000000001000000C0
:1038000010000000000000000024F4000000000090
:040000050800018965
:00000001FF
