:020000040800F2
:10000000D8200020A10100081512000811120008D4
:100010001312000881070008D9130008000000002F
:10002000000000000000000000000000191200089D
:100030008307000800000000171200081B120008C8
:10004000BB010008BB010008BB010008BB010008A0
:10005000BB010008BB010008BB010008BB01000890
:10006000BB010008BB010008BB010008BB01000880
:10007000BB010008BB010008BB010008BB01000870
:10008000BB010008BB010008BB010008BB01000860
:10009000BB010008BB010008BB010008BB01000850
:1000A000BB010008BB010008BB010008BB01000840
:1000B000BB010008BB010008BB010008BB01000830
:1000C000BB010008BB010008BB010008BB01000820
:1000D000BB010008BB010008BB010008BB01000810
:1000E000BB010008BB010008BB010008BB01000800
:1000F000BB010008BB010008BB010008BB010008F0
:10010000BB010008BB010008BB010008BB010008DF
:10011000BB010008BB010008BB010008BB010008CF
:10012000BB010008BB010008BB010008BB010008BF
:10013000BB010008BB010008BB010008BB010008AF
:10014000BB010008BB010008BB010008BB0100089F
:10015000BB010008BB010008BB010008BB0100088F
:10016000BB010008BB010008BB010008BB0100087F
:10017000BB010008BB010008BB0100080000000033
:10018000BB010008BB010008DFF810D000F0D4FA72
:100190000048004741260008AFF30080D820002027
:1001A0000648804706480047FEE7FEE7FEE7FEE711
:1001B000FEE7FEE7FEE7FEE7FEE7FEE7291200089E
:1001C000890100082DE9F05F0546002092469B4614
:1001D00088460646814640241BE02846414647465D
:1001E000224600F00AF953465A46C01A914110D3EC
:1001F00011461846224600F0F1F82D1A67EB010867
:100200004F4622460120002100F0E8F817EB0009D4
:100210004E41201EA4F10104DFDC484631462A4647
:100220004346BDE8F09F2DE9F04D81EA030404F058
:10023000004B21F0004514464FF0000A23F0004126
:1002400050EA050220D054EA01021DD0C5F30A5736
:100250000246C5F31303C1F31300C1F30A5640F479
:10026000801543F48013A7EB0608101BD64608F24E
:10027000FD3873EB050002D308F1010801E0921884
:100280005B41B8F1000F03DA00200146BDE8F08DB4
:1002900000204FF48011064684460EE0171B73EBD6
:1002A000050705D3121B63EB050306434CEA010C5B
:1002B00049084FEA300092185B4150EA0107EDD13E
:1002C00052EA030012D082EA040083EA05010843DF
:1002D00005D0101BAB4106D20122002306E000220C
:1002E0004FF0004302E06FF0010253101AEB0600DA
:1002F0004CEB085110EB0A0041EB0B01BDE8F04D4F
:1003000000F08BB80EB540F2334102910021CDE9E7
:1003100000110A460B4600F08FF803B000BDC1F390
:100320000A5210B5C1F3130140F2FF3341F48011BA
:100330009A4201DA002010BD40F233439A42A2F201
:10034000334203DC524200F058F810BD904010BD1B
:1003500030B5041E71F1000404DB4FF0004440424C
:1003600064EB0101141E73F1000405DB1C464FF021
:100370000043524263EB04038B4208BF824230BD0C
:1003800030B5041E71F1000404DB4FF0004440421C
:1003900064EB0101141E73F1000405DB1C464FF0F1
:1003A0000043524263EB0403994208BF904230BDC0
:1003B00030B50B46014600202022012409E021FA35
:1003C00002F59D4205D303FA02F5491B04FA02F532
:1003D0002844151EA2F10102F1DC30BD202A04DB05
:1003E000203A00FA02F1002070479140C2F1200348
:1003F00020FA03F3194390407047202A04DB203A87
:1004000021FA02F00021704721FA02F3D040C2F134
:100410002002914008431946704710B5141E73F12D
:10042000000408DA401C41F1000192185B411A43B4
:1004300001D120F0010010BD2DE9F04D92469B4600
:1004400011B1B1FA81F202E0B0FA80F220329046A6
:10045000FFF7C4FF04460F4640EA0A0041EA0B01D9
:1004600053465A46084313D0114653EA010019D0A7
:10047000C8F140025046FFF7C0FF05460E46504601
:1004800059464246FFF7AAFF084305D0012004E081
:1004900020463946BDE8F08D0020054346EAE07667
:1004A0002C4337430A986305E40AA0EB08000022B6
:1004B000FD0A44EA47540A3002D500200146E9E724
:1004C000010510196941DDE9084500196941BDE8D8
:1004D000F04DA2E72DE9FE4F804681EA0300C00FF0
:1004E0000C46009021F0004123F00045B8EB0200DB
:1004F000A94105D24046214690461C460B4602467D
:1005000023F00040104347D0270DC7F30A00C3F380
:100510000A510290401A019040286BDAC3F313008D
:1005200040F4801B0098924620B10023D2EB030ACE
:1005300063EB0B0B01985946C0F140025046FFF7A0
:100540004DFF06460D4650465946019A00F006F901
:1005500010EB08006141002487EA115284EAE77336
:100560001A4340D0009A62B3019A012A4FEA075217
:1005700015DC001B61EB02014FF0004202EA07525A
:10058000CDE90042001C41F5801132462B46FFF7B1
:1005900053FF03B0BDE8F08F40462146F9E7001B4A
:1005A00061EB0201001C41F5801300185B4120182B
:1005B000A2F5001747EB030140EAD570B6196D416B
:1005C00011E06D084FEA360645EAC0754FEA07525A
:1005D000001B61EB0201001C41F5801149084FEA44
:1005E00030000019514132462B4603B0BDE8F04FB0
:1005F000FFF713BF0098012240000023D0EB020256
:1006000063EBE073009821464FEAE074B8EB00001A
:1006100061EB0401E9E783F000435BE781F000410F
:1006200058E72DE9FE4F81EA030404F0004421F06D
:10063000004100944FF0000B23F0004350EA010406
:100640005ED052EA03045BD0C3F30A54C1F30A55E7
:100650002C44A4F2F3340194A0FB0254C1F313011F
:1006600041F48011C3F3130343F4801301FB0244EC
:1006700000FB034E840A970A44EA815447EA8357F1
:10068000A4FB076802958D0A05FB07854FEA932CAA
:1006900004FB0C542705029D4FEA065847EA16371B
:1006A000B5EB08056EEB070C870E920E47EA811733
:1006B00042EA8312A7FB0201B6EB0B0164EB0004D4
:1006C0002B0D43EA0C335E1844EB1C50DA465146BE
:1006D000E7FB0201C5F313044FEA0B3343EA14535B
:1006E0004FEA0432019C43EA0603A4F10C0402948D
:1006F000009CCDE900B4FFF79FFE03B0BDE8F08F8A
:1007000000200146F9E7C1F30A52C1F3130140F298
:10071000FF3341F480119A4202DA0020014670470B
:1007200040F233439A42A2F2334202DC5242FFF7D4
:1007300064BEFFF753BE0000064C074D06E0E068BC
:1007400040F0010394E8070098471034AC42F6D318
:10075000FFF71EFD98350008B8350008202A06DB93
:10076000CB17203A41FA02F043EAE07306E041FA7F
:1007700002F3D040C2F1200291400843194670476D
:10078000FEE770472DE9F84F00220127884D032628
:100790004FF00F080B6807FA02FC03EA0C036345ED
:1007A00040F0FF804C68012C18BF022C03D0112CA4
:1007B00018BF122C1AD1D0F808904FEA420406FA5A
:1007C00004FA29EA0A09D1F80CA00AFA04F444EA66
:1007D00009048460446824EA0C0C0C79C4F3001406
:1007E00004FA02F444EA0C0CC0F804C0D0F80C90EF
:1007F0004FEA420CD1F808A006FA0CF429EA0409E1
:100800000AFA0CFA4AEA0909C0F80C90D1F80490E7
:10081000B9F1020F18BFB9F1120F15D14FEAD20981
:1008200000EB890ADAF820B04FEA42794FEAD96939
:1008300008FA09FE2BEA0E0BD1F810E00EFA09F9BE
:1008400049EA0B09CAF82090D0F8009029EA04047C
:1008500091F8049009F0030909FA0CFC4CEA040C25
:10086000C0F800C0D1F804C01CF0805F7DD0D5F87E
:1008700000C04CF4804CC5F800C0D5F800C00CF4A2
:10088000804CCDF800C022F0030C0CF1804404F53C
:100890009834D4F808984FEA827C4FEA1C7C08FA16
:1008A0000CFA29EA0A09A0F1804ABAF5003A38D0D0
:1008B000A0F1804ABAF5013A08BF4FF0010A30D0E2
:1008C000A0F1804ABAF5023A08BF4FF0020A28D0D8
:1008D000A0F1804ABAF5033A08BF4FF0030A20D0CE
:1008E000A0F1804ABAF5043A08BF4FF0040A18D0C4
:1008F000A0F1804ABAF5053A08BF4FF0050A10D0BA
:10090000A0F1804ABAF5063A08BF4FF0060A08D0AF
:10091000A0F1804ABAF5073A0CBF4FF0070A4FF032
:10092000080A0AFA0CFC4CEA090CC4F808C8214C65
:10093000D4F800C0D1F804902CEA030C19F4803FDD
:1009400018BF4CEA030CC4F800C01B4CD4F800C01C
:10095000D1F804902CEA030C19F4003F18BF4CEABC
:10096000030CC4F800C0154C00E01AE0D4F800C035
:10097000D1F804902CEA030C19F4801F18BF4CEA3C
:10098000030CC4F800C00E4CD4F800C0D1F8049099
:100990002CEA030C19F4001F18BF4CEA030CC4F82E
:1009A00000C0521C102AFFF4F5AEBDE8F88F00001D
:1009B00044380240003C0140043C0140083C0140F6
:1009C0000C3C014001488068704700008000002016
:1009D00002488168027811448160704780000020DD
:1009E0000B4810B5016841F400710160016841F4E1
:1009F00080610160016841F480710160032000F0B2
:100A000075F8002000F006F800F024F8002010BD72
:100A1000003C024070B50D4D04464FF47A712878C1
:100A2000B1FBF0F00A490968B1FBF0F000F06CFB93
:100A300048B9102C07D200222146501E00F024F89D
:100A400000206C6070BD012070BD0000800000209F
:100A50008C0000200A4881B0016841F480410160A7
:100A6000006800F4804000900648016841F0805121
:100A70000160006800F08050009001B070470000F5
:100A80004438024040380240174B10B41B68C3F38F
:100A90000223C3F1070CBCF1040F88BF4FF0040C14
:100AA0001C1D072C34BF0023DB1E012404FA0CFCA0
:100AB000ACF1010C0CEA0101994004FA03F35B1E4E
:100AC0001A40114300284FEA0111A1BF00F1E020B4
:100AD00080F8001410BC704700F00F0000F1E02017
:100AE00080F8141D10BC70470CED00E0074900F0C1
:100AF00007000A684FF6FF031A4042EA002040F060
:100B0000FD7040F080600860704700000CED00E070
:100B1000002804BF012070472DE9F0474D4E0446E0
:100B20000F46306801F0FF0800F00F00B84206D20F
:100B300086F80080306800F00F00B84261D120686C
:100B4000454D10F0020F14D010F0040F03D02868A8
:100B500040F4E0502860207810F0080F03D0286897
:100B600040F4604028602868A16820F0F000084345
:100B70002860207810F0010F37D0606837490128CD
:100B800023D0022818BF0328096823D011F0020FD0
:100B900037D0296821F0030141EA00002860FFF7FF
:100BA00011FF81462868616800F00C00B0EB810FEE
:100BB00018BF41F2883A18D0FFF704FFA0EB0900F4
:100BC00050450BD90320BDE8F087096811F4003FB8
:100BD000DFD116E011F0007FDBD112E028686168F8
:100BE00000F00C00B0EB810FE6D1306800F00F0090
:100BF000B84209D986F80080306800F00F00B8428A
:100C000002D00120BDE8F087207810F0040F05D055
:100C10002868E16820F4E05008432860207810F04C
:100C2000080F06D02868216920F4604040EAC1001E
:100C3000286000F03BF82968094AC1F30311515CB0
:100C4000C8400849086008480068FFF7E3FE002034
:100C5000BDE8F087003C02400838024000380240FE
:100C6000203400088C00002084000020044805493E
:100C700000680968044AC1F38221515CC84070478A
:100C80008C00002008380240303400080448054930
:100C900000680968044AC1F34231515CC84070479A
:100CA0008C000020083802403034000818480068E2
:100CB00010F00C02174808BF70471749042A04BFF8
:100CC00008467047082A18BF704710B5134C2268B1
:100CD000236802F03F0213F4800F08D0206800233D
:100CE000C0F38810A0FB0101FFF76CFA07E0216850
:100CF0000023C1F38811A1FB0001FFF763FA21680B
:100D0000C1F30141491C4900B0FBF1F010BD0000E6
:100D1000083802400024F40040787D010438024085
:100D2000002804BF012070472DE9F84F04460078E1
:100D3000DFF8AC8310F0010FA8F1040558D008F1DA
:100D40000400016801F00C01042909D0006800F0DA
:100D50000C0008280DD1D8F8000010F4800F08D03E
:100D6000286810F4003F43D06068002800F0B1818B
:100D70003EE06068B0F5803F19D0B0F5A02F28683C
:100D80000CBF40F4802020F48030286028680CBF1D
:100D900040F4803020F4802028606068B8B1FFF70C
:100DA00011FE0646286810F4003F05D020E02868B0
:100DB00040F480302860F0E7FFF704FE801B6428D1
:100DC00000F22781286810F4003FF5D010E0FFF70B
:100DD000F9FD0646286810F4003F09D0FFF7F2FD40
:100DE000801B642800F21581286810F4003FF5D1BB
:100DF0002078BC4F10F0020F47D0BB48016811F0BB
:100E00000C0F16D0006800F00C00082804BFD8F8BA
:100E1000000010F4800F0CD0E06820B34FF0010008
:100E20003860FFF7CFFD0646286810F0020F09D0A2
:100E300011E0286810F0020F1CBFE06801280AD0FA
:100E400000F047B9FFF7BEFD801B02287ED8286856
:100E500010F0020FF6D02868216920F0F80040EA6F
:100E6000C100286011E000203860FFF7ABFD0646A6
:100E7000286810F0020F08D0FFF7A4FD801B02289D
:100E800064D8286810F0020FF6D1207810F0080F0F
:100E90002AD09648964E616999B101210160FFF709
:100EA00091FD8146306810F0020F1DD1FFF78AFDD9
:100EB000A0EB0900022849D8306810F0020FF5D0E5
:100EC00012E000210160FFF77DFD8146306810F0DF
:100ED000020F09D0FFF776FDA0EB0900022835D8F4
:100EE000306810F0020FF5D1207810F0040F77D0A1
:100EF00080484FF0000B006810F0805F0AD17D48F9
:100F0000016841F08051016000684FF0010B00F072
:100F100080500090784E306810F4807F14D1306893
:100F200040F480703060FFF74DFD8146306810F46A
:100F3000807F09D1FFF746FDA0EB0900022868D8A1
:100F4000306810F4807FF5D06C4E00E061E0A0685E
:100F500001281BD0052830680CBF40F0040020F0A9
:100F60000100306030680CBF40F0010020F0040048
:100F7000C6F80000A06841F2883AB8B1FFF722FD38
:100F80008146306810F0020F05D021E0306840F053
:100F900001003060EEE7FFF715FDA0EB09005045BA
:100FA00037D8306810F0020FF5D011E0FFF70AFDD6
:100FB0008146306810F0020F0AD000BFFFF702FD33
:100FC000A0EB0900504524D8306810F0020FF5D18D
:100FD000BBF1000F04D04748016821F08051016047
:100FE000A069E8B34049096801F00C01082950D014
:100FF00002284FF0000038660ED0FFF7E3FC0446ED
:10100000286810F0007F67D0FFF7DCFC001B022887
:101010003AD90320BDE8F88FFFF7D4FC06462868CC
:1010200010F0007F09D000BFFFF7CCFC801B022826
:10103000EFD8286810F0007FF6D1D4E90701084303
:10104000A16A2F4A490802EB0141626A41EA821112
:10105000084394F82C1040EA0160C8F8000000E052
:101060003AE001203866FFF7ADFC0446286810F02E
:10107000007F31D1FFF7A6FC001B0228C9D82868E1
:1010800010F0007FF6D027E0286810F0007FBBD179
:1010900022E0012808BFBDE8F88FD8F80000E26917
:1010A00000F48001914214D1226A00F03F01914284
:1010B0000FD147F6C071626A0140914209D1A26A1C
:1010C00000F44031914204D1E16A00F0706088423E
:1010D00002D00120BDE8F88F0020BDE8F88F0000A5
:1010E000043802400000474208380240800E474260
:1010F00074380240403802400070004070380240AE
:101100000000FFFF70470000411EB1F1807F24BF47
:10111000012070474FF0E0204161054AF02182F83C
:10112000141D00218161072101610020704700002A
:101130000FE000E010B5FFF7E5FF10BD002804BF89
:101140000120704770B5044690F83900002520B999
:1011500084F83850204600F023F8242084F8390021
:101160002068C16821F40051C160204600F06AF88F
:101170002068016921F4904101612068416921F0F2
:101180002A0141612068C16841F40051C160E563F2
:10119000202084F8390084F83A00002070BD000057
:1011A00000B587B000210091019102910391049153
:1011B0000068A0F18041B1F588311CBF07B000BDC7
:1011C0001048016841F010010160006800F0100053
:1011D00005900D48016841F0010101600068694611
:1011E00000F0010005904FF4C060009002200190D3
:1011F00003200390072004900448FFF7C3FA07B0C8
:1012000000BD000044380240303802400000024077
:10121000FEE7FEE7FEE77047704710B5FFF7D8FB23
:10122000BDE81040FFF786BF0448016841F4700133
:10123000016003494FF000600860704788ED00E0EE
:1012400008ED00E02DE9F041044600680169E2681C
:1012500021F44051114301612169A068E26908430A
:101260006169114308432168CA6822F4037222F4B9
:1012700014421043C86020684169A26921F440719A
:1012800011434161E16919263227B1F5004F4F4AF8
:101290004F48504D21684FF0000825D0814218BFBB
:1012A000914270D1FFF7F2FC61688B0F8A00A0FBBE
:1012B0000601FEF787FF0146A5FB012040096FF0FC
:1012C0001802424301EB820107EB0111A5FB01214A
:1012D000490901F0F00202EB001001F00F0108448F
:1012E00021688860BDE8F081814218BF914224D115
:1012F000FFF7CCFC61684A18A0FB060148EB080325
:10130000FEF760FF0146A5FB0120420908466FF089
:101310001801514300EB810007EBC000A5FB001052
:101320001301400900F0F80103EB410100F0070050
:10133000084421688860BDE8F081FFF797FC616888
:101340004A18A0FB060148EB0803FEF73BFF0146E5
:10135000A5FB0120420908466FF01801514300EB3C
:10136000810007EBC000A5FB00101301400900F04D
:10137000F80103EB410100F0070008442168886090
:10138000BDE8F081FFE7FFF771FC61688B0F8A0011
:10139000A0FB0601FEF716FF0146A5FB0120400950
:1013A0006FF01802424301EB820107EB0111A5FB2C
:1013B0000121490901F0F00202EB001001F00F01D8
:1013C000084421688860BDE8F081000000140140F5
:1013D000001001401F85EB51FEE700000FB4054BE4
:1013E00010B503A9044A029800F0DAF810BC5DF8C1
:1013F00014FB0000DB2500089000002002E008C874
:10140000121F08C1002AFAD170477047002001E07E
:1014100001C1121F002AFBD1704700002DE9FF5FB8
:1014200082B00021DDE90430020DDDF840B0034355
:1014300018D044F61050A2F2FF324243151411980E
:1014400001281FD0A5EB0B00401C5FEA000A4FF0FB
:1014500000064E4FDFF83891B046504615D5CAF118
:10146000000413E0119801244AA3012801D16FEA76
:101470000B010298119AC0E90031C0E9024206B09E
:10148000BDE8F09FCBF10000DFE704460021404AB1
:10149000491842EB0450CDE9001012E0E00707D0F4
:1014A00032463B4640464946FFF7BBF880468946F0
:1014B00032463B4610461946FFF7B3F806460F463C
:1014C0006410002CEAD1DDE90401DDE90023BAF162
:1014D000000F06DAFFF7A5F842464B46FFF7A1F8E2
:1014E00005E0FEF7A0FE42464B46FEF79CFE044692
:1014F0000E460022284BFEF743FF03D84FF0FF3083
:10150000014607E00022254B20463146FEF7E2FF68
:10151000FFF7F9F8102409E0002C0ADB0A22002367
:10152000FEF750FE039B30321A55641E50EA01024A
:10153000F2D1641C039AC4F111031444119A012AD4
:1015400003D0012208430DD10AE0084304D0002053
:101550004FF0110B119072E7A3EB0B056D1E0DE020
:101560005B4504DD4FF0000205F1010504E003DAFC
:101570004FF00002A5F10105002AECD00298119964
:10158000C0E90231C0E9004579E7000000001440DD
:101590000000F03F300000000000F0430000E03F9A
:1015A0002DE9FF4F95B09A46884606460025EEE1A4
:1015B000252877D100242746F94A0121039400E029
:1015C000044316F8013F203B01FA03F01042F7D123
:1015D00030782A2811D06FF02F033078A0F1300234
:1015E000092A16D8039A44F0020402EB820203EBA4
:1015F00042021044761C0390EFE758F8042B039244
:10160000002A03DA504244F40054039044F00204E8
:10161000761C30782E2816D116F8010F44F00404F9
:101620002A280DD06FF02F023078A0F13003092B5B
:1016300009D807EB870302EB4303C718761CF3E7CF
:1016400058F8047B761C30786C280FD006DC4C28C8
:1016500017D068280DD06A2814D104E0742810D05F
:101660007A280FD10DE044F400140AE044F4801409
:1016700001E044F440147278824202D104F58014EF
:10168000761C761C307866280BD013DC582877D06F
:1016900009DC002875D04528F6D04628F4D0472824
:1016A0001AD193E118E0632835D0642879D06528F1
:1016B00012D18BE1702873D008DC6728F1D069283B
:1016C0006FD06E280DD06F2806D1ACE073282CD0D7
:1016D000752874D0782853D05246179990476D1CBE
:1016E00054E1C4F30250022809D003280DD0D8F8E1
:1016F000001004280DD00D6008F1040846E1D8F868
:101700000010EA17C1E90052F6E7D8F800100D8082
:10171000F2E70D70F0E718F8041B8DF800100020B8
:101720008DF80100EB46012003E058F804BB4FF0B0
:10173000FF3061074FF0000102D40DE009F1010113
:101740008946B9420FDA8145F8DB1BF809100029F8
:10175000F4D108E009F1010189468142FADB1BF866
:1017600009100029F6D103985346A0EB090721463A
:101770003846179A00F080FA284400EB090507E084
:1017800044E008E10DE01BF8010B52461799904721
:10179000B9F10109F7D2534621463846179AF2E0CB
:1017A00039E00A21C4F302524FF0000B0091022AE3
:1017B00006D058F8040BC117032A09D00AE023E029
:1017C00008F1070020F00702F2E80201904605E068
:1017D00000B2C117042A01D140B2C117002906DAAC
:1017E0000A460021404261EB02012D2202E022055F
:1017F00004D52B228DF80420012203E0E20701D05A
:101800002022F7E7914657E00A2100E010214FF02F
:10181000000B00910BE010214FF0000B44F004048A
:101820000827009103E008204FF0000B0090C4F35C
:101830000252022A05D058F8040B0021032A08D0CE
:1018400008E008F1070020F00702F2E802019046E4
:1018500003E080B2042A00D1C0B24FF00009220791
:101860002AD53278702A07D0DDF800C08CF0100C31
:101870005CEA0B0C05D00EE040228DF8042001221A
:1018800008E050EA010306D030238DF804308DF8CB
:10189000052002229146009B83F0080353EA0B03C4
:1018A0000AD150EA010201D1620705D530228DF834
:1018B00004204FF001097F1E3278582A04D039A243
:1018C0000C920CAA02920BE03BA2F9E75B46009A4D
:1018D000FEF778FC0C9B9B5C029A521E02921370DE
:1018E00050EA0102F2D1029804A9081A00F1200B73
:1018F000600702D524F4803400E001275F4502DD53
:10190000A7EB0B0000E0002000EB0B010090039818
:101910004944401A0390E00306D453462146179ADF
:10192000039800F0A9F90544002706E001A85246F3
:10193000C05D179990476D1C7F1C4F45F6DBE00397
:101940000CD553462146179A039800F095F90544A3
:1019500004E030205246179990476D1C0099481EAC
:1019600000900029F5DC08E00298029952460078C0
:10197000491C0291179990476D1CBBF10001ABF116
:10198000010BF1DC5BE100F065F90544761C307871
:1019900000287FF40DAE19B02846BDE8F08F000096
:1019A0000928010030313233343536373839616235
:1019B00063646566000000003031323334353637F9
:1019C000383941424344454600000000600700D4D6
:1019D000062708F1070020F00700F0E80223804600
:1019E00003F0004C5FEA0C0001D097A009E020054D
:1019F00001D596A005E0E00701D095A001E0AFF287
:101A00004C001390307823F0004365280CD006DC9E
:101A1000452809D046281DD047287FD13BE06628BD
:101A200018D067287AD136E00021112F01DB112070
:101A300000E0781CCDE9000104A90CA8FFF7EEFC3A
:101A4000DDE90D010C9A4FF0000B07F1010910922E
:101A500000914EE04FF000400097CDE9011004A93D
:101A60000CA8FFF7DBFCDDE90D020C9B0F994FF092
:101A7000000B91461093009211B9791C00EB0109FB
:101A8000B7EB090003D4C0F1FF3B07F10109A9EB53
:101A90000700019042E0012F00DA01270021112FF9
:101AA00001DD112000E03846CDE9000104A90CA8B1
:101AB000FFF7B4FCDDE90D010C9A00914FF0000B2B
:101AC000B946109221070FD4009A4A4503DA91468D
:101AD00001E0A9F10109B9F1010F05DD109AA9F1A1
:101AE0000101515C3029F4D0B84202DA10F1040F40
:101AF00003DA0121CDE9011010E0002803DC834462
:101B0000A9EB000102E0411C494500DD8946A0EB3C
:101B10000B00401C01904FF000400290200705D4BC
:101B20000198484502DB4FF0FF30019000208DF80E
:101B30004B0002980DF14B07B0F1004F25D0022069
:101B40000C902B200D90029800280CDA4042029055
:101B50002D200D9007E00A210298FEF729FC303174
:101B6000029007F8011D0C99481E0C900029F2DC28
:101B700002980028EFD1791E0D980870307800F097
:101B8000200040F0450007F8020D11A8C01BC01D41
:101B900002901398007800B1012000EB0901019830
:101BA00001EBE071029801440398401A401E039033
:101BB000E00306D453462146179A039800F05CF8D8
:101BC00005441398007818B15246179990476D1C38
:101BD000E00323D553462146179A039800F04CF8AA
:101BE00005441BE0BBF1000F07DB0098584504DDFE
:101BF0001098179910F80B0001E017993020524601
:101C0000904701980BF1010B401E05F10105019071
:101C100004D12E205246179990476D1CB9F100014E
:101C2000A9F10109DEDC05E017F8010B524617990E
:101C300090476D1C0299481E02900029F4DC53461F
:101C40002146179A03989EE62D0000002B00000005
:101C5000200000002DE9F041044600251E461746ED
:101C6000880404D405E039462020B0476D1C641E6A
:101C7000F9D52846BDE8F0812DE9F041044600255C
:101C80001E469046C80301D5302700E0202788046F
:101C900004D505E041463846B0476D1C641EF9D5B1
:101CA0002846BDE8F081F0B5B0F900600746C6F3FC
:101CB000C01083B00C4600281EBF06F07F0003B0A2
:101CC000F0BD16F00700C6F3C30141EA011112D0BE
:101CD000012818BF354622D0218FA8B200F04CFC55
:101CE000208705F07F0006F47F41014341F0800129
:101CF000398003B0F0BD2229B8BF2221208FCDE961
:101D00000010D4E90510B4F90230B4F9002000F055
:101D10000AF905B2E08F002808BFE587DCE7228FCB
:101D200004F1280000F0EEF805B2A08F002808BFEB
:101D3000A587D1E70020704770B50E4615461146BD
:101D4000FFF7B1FF044629463046FFF7ACFF201AE3
:101D500070BD6AB9028802F47F43C2F307221A43B6
:101D600002800A8802F47F43C2F307221A430A80E2
:101D7000B0F90200B1F90210401A70472DE9F05F86
:101D80000023B0F904A08946456A024698461F46DA
:101D900069F31F469C46BAF1000F47DD0CF0FF00C7
:101DA00060F30F062C46311408D484B16068B0F992
:101DB0000200884218BF2468F7D108E03CB1D4F88B
:101DC00004B09BF800B0834518BF2468F6D100200A
:101DD0003DB100BFD5F800B0286028465FEA0B058A
:101DE000F8D10546002C49D008F101001FFA80F80F
:101DF0006068B0F9000010F0010F03D0C0F340207C
:101E0000184483B2206830B1D0F800B0C4F800B0F4
:101E10002C68046028600029A4BF481C60F31F469A
:101E20000CF101000FFA80FCD445B7DBC7EB88004A
:101E3000184487B2B9F1000F04DD3049284600F09C
:101E40004BFA05462868D0E90081D8F804204260A2
:101E5000C8F804100168096801600020C8F8000093
:101E60002846311448BF31B212D4D0B14268B2F919
:101E700002208A4218BF0068F7D110E0781C87B2B0
:101E8000286840680088C0F30020184483B2C2E785
:101E900038B1426812788A4218BF0068F8D1044607
:101EA00001E02C684CB168683946B0F9000000F0D8
:101EB0003BFB24680746002CF5D12868D8F80410AD
:101EC0004268C8F8042041600168C8F80010C0F8F2
:101ED000008000220A49284600F0FEF90468054601
:101EE0004CB168683946B0F9000000F01DFB246869
:101EF0000746002CF5D13846BDE8F09F391D000893
:101F0000531D000838B51546D0E90123D0F800C0AC
:101F1000C46800912146604601F0F0F82946BDE80A
:101F2000384000F001BB2DE9F04F95B0804600200D
:101F3000DDE91E6A0A900B900C900F9010900D90A6
:101F40000E901190009001900D4602900390049025
:101F500005900690CDE907052878994693466F4687
:101F600060B10AA908A800F00AFA57F82010491C25
:101F700047F82010089800780028F2D105EB0800F7
:101F8000401B3044A0F1010898FBF6F02C46089560
:101F90000028C8BF0BF0FF0207DD21782C291CBFE9
:101FA000514021703444401EF7D10895287860B123
:101FB0000AA908A800F0E3F957F82010491C47F8CF
:101FC0002010089800780028F2D198FBF6F00895C8
:101FD0000028C8BF09F0FF0207DD29782C291CBFA3
:101FE000514029703544401EF7D100240AAD57F8FE
:101FF0002400514600F0E5FA55F824200146104629
:1020000000F0DFFA641C8246082CF0D315B0BDE85E
:10201000F08F00002DE9F04F00244FF0010C002A52
:1020200008BF0122002805D9641C04FB04F5ED005B
:10203000A842F9D8491E601E21F0030101F1040BEA
:1020400000FB00FE0BEB4E0A002818BF002128D928
:1020500000E018B301FB00F40AEB44060BEB440567
:102060004FF000044FEA00070CEB040909FB02F2F1
:102070004FEAE27802EB18486FF30F08A2EB080270
:1020800009EB020826F8028BC84408F0FF0825F87F
:10209000028B04F101047F1EE6D18444491C814275
:1020A000D7D30AEB4E01C3E901BA491E21F003015F
:1020B000091DD9601860BDE8F08F00002DE9F84FC8
:1020C0004FF0000CA0F10108654666466746B8F17E
:1020D000010F4DD9DFF8E8A00AF1100B0AF1200E2C
:1020E0001DE0E5B102EB0C00731E0090401E15F0E0
:1020F000010F03D013F801CF00F801CF5FEA550CB0
:1021000008D05C78447013F8024F00F8024FBCF11D
:10211000010CF6D1009B2C2009F1010C5855481CEC
:1021200001B201F0070008281CD2DFE800F0040427
:10213000040A0A0F0F15C1F3C10004255AF82060E4
:1021400010E0C1F3C1005BF8206003E0C1F3C100FF
:102150005EF82060082505E01A48C1F3C103082590
:1021600050F823600CEB050909F101004045B8D394
:1021700008F10100844538BFB0F1004F14D202EBE2
:102180000C01A0EB0C00491E10F0010F18BF01F864
:10219000017F400808BFBDE8F88F4F7001F8027F4B
:1021A000401EFAD1BDE8F88F604598BFBDE8F88FB2
:1021B00002F80C700CF1010C8445F9D3BDE8F88FDE
:1021C00040000020700000202DE9F00F1423B0FB28
:1021D000F3F0871E01EBC70400234C600B606380A3
:1021E000D1F804C048F280030846ACF8003001F191
:1021F000080C231D103104EB870547F6FF794FF0DB
:10220000FF36A1423CBF03F10408A8450DD2614648
:10221000D0F80080C1F8008001604B6019460CF1D5
:10222000080C0E801B1DA1F802900021002F22D95E
:1022300082EA010606F00F080E4668F3DF0646EA5A
:10224000062A0CF10806A6423CBF03F10408A84583
:102250000ED2E0460668C8F80060C0F80080C8F8F2
:102260000430A3F800A0A3F802900CF1080C1B1D89
:10227000491CB942DCD303680121D3F800C0BCF18A
:10228000000F1FD0DFF848C0ACFB074C4FEA9C049E
:102290008C4205D9D3F804C0ACF80210491C0BE0FD
:1022A00081EA020C491C01F007054CEA052C5D6827
:1022B000CCF30D0CA5F802C01B68D3F800C0BCF12C
:1022C000000FE5D1BDE8F00F0022024900F004B88C
:1022D000CDCCCCCC531D00082DE9F74F82464FF0F2
:1022E000010900BF5FEA0A054FF0000A5746D346CE
:1022F0003FD000262C4630460BF1010BB9F1000F00
:10230000D8BFC84624DD2468761C002C1CBF401CA6
:102310004845F8DBC846002E1ADD7EB1B8F1000F43
:1023200018BF002C06D0DDE9013261686868984763
:10233000002803DC28462D68761E03E0204624682A
:10234000A8F10108002F14BF386082460746E2E773
:10235000B8F1000F02DD002CDFD101E02500C8D16B
:1023600000203860BBF1010FC8BF4FEA4909B9DC52
:1023700001E00020006003B05046BDE8F08F036824
:10238000844600201A78002A00F0CA802C2A5BD0EC
:10239000A2F13000092833D80A680420521C0A60D0
:1023A00013F8012F002A76D02C2A7BD05EE0A2F110
:1023B0003000092870D88A690720521C8A6113F8F6
:1023C000012F002A67D02C2A67D16BE02B2A18BF77
:1023D0002D2A77D0CA684FF0010002F10102CA60CD
:1023E00060E0A2F1300009282FD88A680420521C2E
:1023F0008A6013F8012F002A4DD02C2A52D035E0E4
:102400002B2A18BF2D2A0AD02E2A13D04A68012061
:10241000521C4A600A68521C5B1C0A6080E00A6811
:102420000220521C0A6013F8012F002A78D02C2AAF
:1024300038D0D6E70A680520521C0A6013F8012F2D
:10244000002A6DD02C2A2FD12CE02E2A04D08A68A5
:102450000120521C8A6025E08A680520521C8A608F
:1024600013F8012FBAB12C2A1ED11BE02E2A08D056
:10247000303A092A12D813F8012F62B12C2AF5D16B
:1024800010E00A690520521C0A6113F8012F12B1ED
:102490002C2A09D106E042E02EE032E00A69012050
:1024A000521C0A615B1C3BE0452A18BF652A0AD012
:1024B000A2F13002092A10D813F8012F7AB32C2A7E
:1024C000F2D1EFE70EE04A690320521C4A6113F88B
:1024D000012F22B32C2AE5D078E74A690120521C4B
:1024E0004A61DFE7CA680620521CCA6013F8012F50
:1024F000AAB12C2AD6D05AE78A690120521C8A61D7
:10250000D0E7303A092A05D813F8012F3AB12C2A1E
:10251000F7D1C7E74A680120521C4A60C2E7FFE7CB
:10252000CCF80030704700001FFA80FC0CF0FF0070
:102530005FF0080280EA010313F0010F4FEA500038
:102540001ABF4AF2010383EA51014908521EF1D130
:1025500008464FEA1C2208214AF2010C82EA0003D5
:1025600013F0010F4FEA520214BF8CEA50004008EA
:10257000491EF3D1704700000346C0B25FF0080265
:1025800080EA010C1CF0010F4FEA50001ABF4AF21A
:10259000010C8CEA51014908521EF1D108461A0A71
:1025A00008214AF2010C00BF82EA000313F0010F78
:1025B0004FEA520214BF8CEA50004008491EF3D182
:1025C000704710B5044600B2FFF7AEFF2214014673
:1025D000BDE810401046FFF7A7BF38B504468DF898
:1025E000000069460320ABBE204638BD062810D245
:1025F000DFE800F00F0306080B0D0748006870477E
:10260000064800E00648006870470648FBE70648B1
:10261000F9E700207047000020000020240000207F
:10262000280000202C0000203000002002484168D3
:102630000068081A70470000380000200000000001
:102640002DE9F34F2DED068BADF6240D00250A463E
:102650002C464FF0FF38A9460DF63C0102AF0DF1B4
:102660004A0000F0B3FE0120FFF7C0FFADF80800FC
:102670000220FFF7BBFFADF80A000320FFF7B6FF0B
:10268000ADF80C000420FFF7B1FF09900520FFF71B
:10269000ADFF0A90002804BF07200A90BDF808107B
:1026A00066204FF0000A002901BFBDF80A1000297A
:1026B000BDF80C10002905D1ADF808A0ADF80AA0AE
:1026C000ADF80C00BDF80810012901BFBDF80A10D3
:1026D0000029BDF80C10002907D143F21541ADF8CF
:1026E0000810ADF80A10ADF80C0014A804904FF4CF
:1026F000FA600890BDF80800ADF80800BDF80A00BF
:10270000ADF80A00BDF80C00ADF80C000A98ADF861
:1027100048A010F0010F4FF0010B18BF01240A98D8
:1027200010F0020F18BF641C0A9810F0040F18BFB5
:10273000641C0898B0FBF4F008900A9810F0010FA0
:1027400006D00899049801FB05004FF0010505909B
:102750000A9810F0020F06D00899049801FB0500B2
:1027600005F1010506900A9810F0040F04D00899AD
:10277000049801FB050007904FF0000505EB0516D6
:1027800007EB860494F8200010F0010F06D037F90B
:102790002620E1680898FFF717FD606294F8200092
:1027A00010F0020F0AD037F92600618804F12803DF
:1027B00040EA014221690898FFF72CFC94F82000B8
:1027C00010F0040F05D037F9261062690898FFF75A
:1027D00075FC681C05042D0CD0D09FEDFDAB09984D
:1027E000002852D1B0EE4A8AF0EE6A8A9FEDFA9B39
:1027F000CDF824B034E0099800EB80004000099047
:1028000000F0ECFD099EADF840A0ADF844A0002515
:1028100002ACADF842A0ADF846A0002E16D90121B9
:102820002046FFF7ABFA218FFFF7A6FE20874FF077
:10283000FF312046FFF7A2FA218FFFF79DFE208788
:10284000002D08BF60876D1CB542E8D300F0CEFDB7
:10285000FFF7ECFE00F0D4FDB0EE408AF0EE608AA7
:1028600053EC192B51EC180BFDF772FDC3D351EC4F
:10287000180BFDF754FD002808BF01200A21B1FB09
:10288000F0F00999401C4843099000F0A7FD099D0C
:10289000ADF840A0ADF844A0002602ACADF842A0CF
:1028A000ADF846A0002D16D901212046FFF766FAA3
:1028B000218FFFF761FE20874FF0FF312046FFF7A1
:1028C0005DFA218FFFF758FE2087002E08BF608732
:1028D000761CAE42E8D300F089FDFFF7A7FE00901A
:1028E000BDF908000021FFF71FFEBDF90A200146CF
:1028F0001046FFF719FEBDF90C2001461046FFF700
:1029000013FE0146089800B2FFF70EFE47F60532A7
:10291000811AB34D0190904204BF4FF00108B1A05D
:1029200028D012DC00F20E70B0F5005004BF4FF05A
:102930000408B7A01ED000F64320B0F5804F04BFB6
:102940004FF00208BDA015D00BE0A1F56060FD3886
:102950000AD00D30B0F5C04F04BF4FF00308C4A03B
:1029600008D04FF0FF395AE04FF00008CCA0FEF736
:1029700035FD01E0FEF732FD2868002818BF00246D
:1029800088BFDFF84CB34AD904EB041007EB80068C
:10299000A6F840A096F8200010F0010F0DD0728F1D
:1029A0003BF818309A4208D02146CAA0FEF716FD1F
:1029B000B6F84000401CA6F8400096F8200010F041
:1029C000020F0ED0CF48B28F30F818309A4208D09C
:1029D0002146CDA0FEF702FDB6F84000401CA6F847
:1029E000400096F8200010F0040F0ED0D348F28F6C
:1029F00030F818309A4208D02146D1A0FEF7EEFCFC
:102A0000B6F84000401CA6F84000B6F84000484424
:102A10000FFA80F9601C84B228688442B4D3FFF7AF
:102A200089F9484406B2D2A00899FEF7D7FCD6A08F
:102A30000099FEF7D3FC009800F0E2FC53EC102B59
:102A4000D7A0FEF7CBFC009800F0DAFC53EC1A2B71
:102A500051EC100BFDF794FC16D2009800F0D0FC5E
:102A600009982968B0EE408AF0EE608A4843FDF785
:102A700049FC53EC182BFDF7D6FB41EC100BCEA014
:102A800053EC102BFEF7AAFC009800F0B9FC9FED68
:102A9000D01B51EC100B53EC112BFDF759FC04D259
:102AA000CDA0FEF79BFC701C06B209982968414333
:102AB000D9A0FEF793FCDEA1E5A0FEF78FFCEAA10A
:102AC000EAA0FEF78BFCEFA1F0A0FEF787FCF5A0D3
:102AD0000199FEF783FC0A9810F0010F1EBF2868C9
:102AE000002800240ED900BF04EB041007EB80007F
:102AF0002146428FF2A0FEF771FC601C84B2286868
:102B0000A042F1D80A9810F0020F1EBF28680028D2
:102B100000240DD904EB041007EB80002146828FBE
:102B2000EEA0FEF75BFC601C84B22868A042F1D8DE
:102B30000A9810F0040F13D02868002818BF00244A
:102B400022D00FD904EB041007EB80002146C28F7E
:102B5000E9A0FEF743FC601C84B22868A042F1D8CB
:102B6000286888B1002400280ED900BF04EB0410A7
:102B700007EB80002146028FE6A0FEF72FFC601CC9
:102B800084B22868A042F1D8002EC8BFE8A004D0C3
:102B90001ADD00BFFEF722FCEEE1EA48FEF71EFC5C
:102BA000B8F1030F11D1009800F02AFC09982968A8
:102BB000B0EE408AF0EE608A4843FDF7A3FB53EC89
:102BC000182BFDF730FBBFE1D3E1D5E10000000099
:102BD0000000000000000000000000000000F03FC6
:102BE00034000020366B2076616C69646174696F13
:102BF0006E2072756E20706172616D65746572739E
:102C000020666F7220636F72656D61726B2E0A00B1
:102C1000324B2076616C69646174696F6E207275E5
:102C20006E20706172616D657465727320666F727B
:102C300020636F72656D61726B2E0A0050726F6651
:102C4000696C652067656E65726174696F6E20726C
:102C5000756E20706172616D657465727320666F48
:102C60007220636F72656D61726B2E0A0000000046
:102C7000324B20706572666F726D616E6365207293
:102C8000756E20706172616D657465727320666F18
:102C90007220636F72656D61726B2E0A0000000016
:102CA000366B20706572666F726D616E636520723F
:102CB000756E20706172616D657465727320666FE8
:102CC0007220636F72656D61726B2E0A00000000E6
:102CD000000000205B25755D4552524F5221206C4B
:102CE0006973742063726320307825303478202D26
:102CF0002073686F756C64206265203078253034ED
:102D0000780A00000A0000205B25755D4552524F8D
:102D10005221206D6174726978206372632030786B
:102D200025303478202D2073686F756C64206265BF
:102D3000203078253034780A00000000140000208C
:102D40005B25755D4552524F522120737461746545
:102D50002063726320307825303478202D2073680A
:102D60006F756C64206265203078253034780A00F5
:102D7000436F72654D61726B2053697A6520202024
:102D8000203A20256C750A00546F74616C207469B8
:102D9000636B732020202020203A20256C750A00C8
:102DA000546F74616C2074696D652028736563735A
:102DB000293A2025660A0000497465726174696FBA
:102DC0006E732F5365632020203A2025660A000089
:102DD00000000000000024404552524F5221204D77
:102DE000757374206578656375746520666F7220ED
:102DF0006174206C65617374203130207365637376
:102E000020666F7220612076616C69642072657340
:102E1000756C74210A000000497465726174696FF1
:102E20006E73202020202020203A20256C750A0077
:102E30004B65696C2056352E303620757064617490
:102E400065203720286275696C6420393630290086
:102E5000436F6D70696C65722076657273696F6E11
:102E6000203A2025730A00002D6F3300436F6D70E8
:102E7000696C657220666C6167732020203A20259A
:102E8000730A0000535441434B0000004D656D6FC1
:102E90007279206C6F636174696F6E20203A20250F
:102EA000730A00007365656463726320202020202C
:102EB00020202020203A203078253034780A000065
:102EC0005B25645D6372636C69737420202020202D
:102ED00020203A203078253034780A005B25645D64
:102EE0006372636D617472697820202020203A201B
:102EF0003078253034780A005B25645D6372637333
:102F0000746174652020202020203A2030782530FC
:102F100034780A005B25645D63726366696E616C78
:102F20002020202020203A203078253034780A00D4
:102F30004572726F72732064657465637465640AA8
:102F4000000000009C34000841EC100BAFF2E801D7
:102F5000AFF22410CDE9000153EC102B0CA0FEF7CA
:102F60003DFAAFF2E00111A0FEF738FAAFF25C10C3
:102F700010E61048FEF732FA07F1420000F023FA9B
:102F80000DF6240D0020BDEC068B02B0BDE8F08FDD
:102F9000436F72654D61726B20312E30203A2025CF
:102FA00066202F202573202573000000202F202568
:102FB000730000003834000810B592B0FDF710FD22
:102FC000002401940294059406942B4807940894D5
:102FD00009940A940B940C940D940E940F941094ED
:102FE000016841F080510160006800F0805011904C
:102FF0002248016841F480410160006800F480408B
:103000001190022000900120039010200490684647
:10301000FDF786FE08B172B6FEE70F20CDE90C047D
:103020000E940F9400210CA81094FDF771FD08B1C7
:1030300072B6FEE71248016841F0010101600068C4
:10304000104900F0010000900F4801604FF4E13199
:10305000C0E901140C21C460C0E904418461C46169
:10306000FEF76CF808B172B6FEE712B007A0BDE833
:103070001040FEF7B3B90000403802400070004035
:10308000303802400010014094000020436F726508
:103090004D61726B2048617320656E646564000049
:1030A0002DE9F0010024A046A446002818BF002501
:1030B00016D900E088B105FB00F301EB8306074653
:1030C00033681C4494420FDD0CF10A0C0FFA8CFC9F
:1030D0000024361D98467F1EF2D16D1C8542E9D32F
:1030E000BDE8F001604670474345CCBF4FF0010892
:1030F0004FF00008C4440FFA8CFCEAE72DE9FF4FBB
:1031000091B000261E98139A40F4704000B20C90C3
:1031100011981E9900FB00F30B93002818BF5FEA7B
:10312000030C14D010F0010002D013880B4413805C
:1031300084450CD932F810300B4422F8103002EBE1
:103140004003801C5C8884450C445C80F2D8DDE937
:103150001109DDF84C801E9D002818BF002488BF8F
:10316000470826D904FB00F108EB410209EB810175
:10317000A2F1020CA1F1040310F0010F05D03CF9FB
:10318000021F01FB05F143F8041F3A000BD000BFFA
:10319000BCF90210694359603CF9041F694343F8C4
:1031A000081F521EF4D1641C844202D20028D9D1D7
:1031B000F9E7DDE911010C9AFFF772FF3146FFF7DD
:1031C000B3F90190DDE911C8DDE913BABCF1000FD4
:1031D00018BF002484BF4FEA5C0900272CD9384669
:1031E00048F82470BCF1000F23D004FB0CF10BEB6A
:1031F00041018A1EAAF102031CF0010F05D032F82A
:10320000021F33F8025F11FB050000255FEA090188
:103210000CD05688B3F802E016FB0E0032F8046FAB
:1032200033F804EF16FB0E55491EF2D1284448F836
:103230002400641C6445D2D3DDE911010C9AFFF728
:103240002FFF0199FFF770F90190DDE9110713993C
:10325000099114990D91002818BF002588BF4FEAE5
:1032600050083FD94FF00006002835D9099A05FBD0
:1032700000F102EB410A05FB0069002147F8291023
:1032800038B3331A0D9AAAF1020C02EB430310F083
:10329000010F06D003EB40033CF8022F1C8812FB01
:1032A000041100245FEA080210D000BFBCF802B08D
:1032B00033F810E01BFB0E1103EB80033CF804BF56
:1032C000B3F800E01BFB0E44521EEFD1214447F837
:1032D0002910761C8642CED36D1C854202D200286E
:1032E000FAD0BFE7DDE911010C9AFFF7D9FE019989
:1032F000FFF71AF90190DDE9110813990A91DDF839
:1033000050B0002818BF002688BF4FF000092DD903
:103310004FF00004002823D90A9A06FB00F102EBC3
:10332000410A06FB004E494648F82E90A8B1524685
:103330000BEB44034FEA000532F802CB1F881CFB5D
:1033400007FCCCF38307CCF3461C17FB0C1103EBF3
:1033500040036D1EF0D148F82E10641C8442E0D367
:10336000761C864202D20028FAD0D1E7DDE91101AD
:103370000C9AFFF795FE0199FFF7D6F81E9A11995E
:103380005242139B0FFA82FC00291CBF0B9C002C9D
:1033900015D011F0010102D01A8862441A808C42C3
:1033A0000DD900BF33F81120624423F8112003EB3C
:1033B0004102891C55888C4265445580F2D815B06D
:1033C00000B2BDE8F08F00210170704710B50446CF
:1033D000FFF7F2FD0120207010BD000010B5FDF7D1
:1033E000F1FA0149086010BD3800002010B5FDF762
:1033F000E9FA0149486010BD3800002000000000D3
:1034000010B5FCF77FFF9FED041B53EC112BFCF76D
:103410000AFF41EC100B10BD0000000000408F407F
:103420000000000000000000010203040607080974
:10343000000000000102030443616E6E6F74207689
:10344000616C6964617465206F7065726174696F25
:103450006E20666F7220746865736520736565649D
:103460002076616C7565732C20706C6561736520C6
:10347000636F6D706172652077697468207265731F
:10348000756C7473206F6E2061206B6E6F776E2089
:10349000706C6174666F726D2E0A0000436F7272F9
:1034A000656374206F7065726174696F6E207661F8
:1034B0006C6964617465642E2053656520524541D2
:1034C000444D452E6D6420666F722072756E2061CA
:1034D0006E64207265706F7274696E672072756CAD
:1034E00065732E0A0000000033352E353434303039
:1034F000000000002B302E36343430300000000045
:103500002E31323334353030000000002D3131306F
:103510002E373030000000002D2E313233652D3231
:10352000000000002B302E36652D313200000000E7
:1035300035303132000000002B3132320000000003
:103540002D3837652B38333200000000352E3530EA
:1035500030652B33000000003132333400000000AE
:103560002D3837340000000054302E33652D31469D
:103570000000000033342E30652D545E0000000042
:103580002D542E542B2B5471000000003154332E37
:103590003465347A00000000B835000800000020CF
:1035A00094000000FC1300084C3600089400002032
:1035B000442000000C140008B0D44033796A14E7AA
:1035C000C1E352BE99110856D71F4707475EBF395E
:1035D000A4E53A8E848D0000000000000000000089
:1035E00066000000401F0000000000000100000015
:1035F00000000000000000003035000858350008C9
:103600006035000838350008E83400080035000847
:103610000C350008F43400084C3500081835000853
:10362000403500082435000868350008803500085A
:103630008C350008743500080100000010000000FF
:0C364000000000000024F4000000000066
:040000050800018965
:00000001FF
